:020000040800F2
:10000000E80A00205502000809560008294F000898
:100010000556000845090008456F0008000000006B
:10002000000000000000000000000000995B0008D4
:10003000ED0C00080000000035580008FD5F0008C6
:100040006F0200086F0200086F0200086F020008CC
:100050006F0200086F0200086F0200086F020008BC
:100060006F0200086F0200086F0200086F020008AC
:100070006F0200086F0200086F0200086F0200089C
:100080006F0200086F0200086D0400086F0200088C
:10009000490900086F0200086F0200086F0200089B
:1000A0006F020008596300086F0200086F02000821
:1000B000696300086F0200086F0200086F02000801
:1000C0006F0200086F0200086F0200086F0200084C
:1000D0006F0200086F020008356F00086F02000809
:1000E0006F0200086F0200086F0200086F0200082C
:1000F0006F0200086F0200086F0200086F0200081C
:100100006F0200086F0200086F0200086F0200080B
:100110006F0200086F020008796300086F02000890
:10012000950B00086F0200086F0200086F020008BC
:100130006F0200086F0200086F0200086F020008DB
:100140006F0200086F0200086F0200086F020008CB
:100150006F0200086F0200086F0200086F020008BB
:100160006F0200086F0200086F0200086F020008AB
:100170006F0200086F0200086F0200080000000014
:100180006F0200086F02000800F002F800F052F859
:1001900014A696E8000CB244B344DA4501D100F04D
:1001A00049F8BAE80F000FA696E83000A5EB040561
:1001B00004EB0607AAEB0704A7F101074FEA1515A0
:1001C0004FEA3414A4F10104AC4201D300F032F838
:1001D00013F0010F18BFFB1A43F0010300F001F800
:1001E000DBE718474073000060730000103A24BF3B
:1001F00078C878C1FAD8520724BF30C830C144BF8C
:1002000004680C6070470000704700000023002461
:1002100000250026103A28BF78C1FBD8520728BF16
:1002200030C148BF0B6070471FB507F04DF91FBDC7
:1002300010B510BD00F0E5F81146FFF7F5FF06F028
:10024000E3FE00F003F903B4FFF7F2FF03BC00F094
:1002500007F900000948804709480047FEE7FEE724
:10026000FEE7FEE7FEE7FEE7FEE7FEE7FEE7FEE766
:1002700004480549054A064B70470000C560000860
:1002800089010008E8040020E80A0020E8060020B0
:10029000E806002053EA020C00F069802DE9F04BDB
:1002A0004FF00006002B1FBFB3FA83F503FA05F4E5
:1002B00024FA05F65E4012BF1643B2FA82F502FA3E
:1002C00005F4C5F120051EBF22FA05FC44EA0C0422
:1002D000203556EA044C4FEA144418BF641C4FF012
:1002E00000084FF00009904271EB030C39D300294C
:1002F00019BFB1FA81F701FA07F6B0FA80F700FAF0
:1003000007F6C7F120071EBF20FA07FC46EA0C06D5
:100310002037B6FBF4FCA7EB0507103F07F01F0BD7
:10032000CBF120062CFA06F60CFA0BFB44BFB346C1
:100330000026202FA4BF5E464FF0000B5BEA060CA0
:1003400008BF4FF0010B19EB0B0948EB0608ABFB9C
:10035000027C06FB02CC0BFB03CCC01B71EB0C0137
:10036000C1E70B46024641464846BDE8F08B13B54F
:10037000084318BF4FF0FF300146AFF30080BDE8DF
:100380001C4070474FF0000200B513469446964655
:10039000203922BFA0E80C50A0E80C50B1F1200198
:1003A000BFF4F7AF090728BFA0E80C5048BF0CC046
:1003B0005DF804EB890028BF40F8042B08BF7047A4
:1003C00048BF20F8022B11F0804F18BF00F8012B16
:1003D000704770477047704710B500F00DF800681F
:1003E00010BD10B5044600F007F8046010BD000011
:1003F000004870471000002000487047100000209F
:1004000070477546FFF7F4FFAE4605006946534650
:1004100020F00700854618B020B5FFF729FFBDE89A
:1004200020404FF000064FF000074FF000084FF05B
:10043000000BAC46ACE8C009ACE8C009ACE8C009A8
:10044000ACE8C00921F007018D46704710B504469D
:10045000AFF300802046BDE81040FFF7F4BE000077
:1004600001491820ABBEFEE72600020080B540F22D
:100470009800C2F2000000F0F7FD80BD82B001904C
:1004800042F20030C4F2010000900099486820F464
:1004900040304860019842680099486810434860BD
:1004A00001980168486820F48070486001980168EC
:1004B0000269486840EA022048600198016848687B
:1004C00020F04070486001980168826848681043D5
:1004D000486001980168886820F40060886001988D
:1004E0000168C2688868104388600198806A0121A9
:1004F000C0F60071884219D0FFE70198016888684A
:1005000020F07060886001980168826A88681043F2
:10051000886001980168886820F0405088600198E0
:100520000168C26A8868104388600CE0019801681D
:10053000886820F07060886001980168886820F001
:1005400040508860FFE701980168886820F0020049
:1005500088600198027E0168886840EA42008860ED
:10056000019890F82000C8B1FFE701980168486839
:1005700040F40060486001980168486820F46040D9
:10058000486001980168426A4EF20000CFF6FF70A1
:1005900000EB423248681043486006E00198016869
:1005A000486820F400604860FFE701980168C86A65
:1005B00020F47000C86201980168C2690020CFF67B
:1005C000F07000EB0252C86A1043C86201980168DB
:1005D000886820F400708860019890F830200168E5
:1005E000886840EA4220886001980168886820F4A1
:1005F00080608860019801684269886840EA8220CA
:10060000886002B07047000080B588B007908DED1B
:10061000060A0798C8309DED060A00F0C1FB07984E
:1006200090ED3A0AB5EE400AF1EE10FA1FD0FFE75E
:100630000798D0F8D00005909DED050A9FED2E1A81
:1006400020EE010A9FED2D1A80EE010A8DED040ABD
:1006500007982C309DED040ADDED060A05F00CF834
:100660008DED030A03980799C1F89800FFE70799F1
:1006700001F17C0091ED020AD1ED030A91ED041A1B
:10068000D1ED321A9DED062A00F0A0FB079890EDFF
:10069000081A90ED2E0AB8EE411A20EE010ABCEEBF
:1006A000C00A8DED020A079890ED081A90ED2F0A06
:1006B000B8EE411A20EE010ABCEEC00A8DED010A27
:1006C000079890ED081A90ED300AB8EE411A20EE26
:1006D000010ABCEEC00A8DED000A029840F2142116
:1006E000C2F200010A68506301980A68906300989A
:1006F0000968C86308B080BD00007042DB0FC940C4
:1007000080B584B003900020C4F202000190012162
:1007100002F080F8014601988DF80B10022102F0DA
:1007200079F8014601988DF80A10042102F072F858
:100730008DF809000399087D48759DF8090080002F
:100740009DF80A1040EA41009DF80B1008430399F8
:10075000087504B080BD000080B582B001908DEDB9
:10076000000A00980199C1F8EC00019854309DED01
:10077000000A05F01DF802B080BD000080B582B00F
:1007800001908DED000A9DED000A019890ED011A8F
:10079000B4EE410AF1EE10FA04DDFFE7019840687B
:1007A000009015E09DED000A019890ED011AB1EE60
:1007B000411AB4EE410AF1EE10FA08DAFFE70198A7
:1007C00090ED010AB1EE400A8DED000AFFE7FFE768
:1007D00000980199C1F8E80001982C309DED000ABD
:1007E00004F0E6FF02B080BD80B584B003900398AA
:1007F00090ED081A90ED090AB8EE411A20EE010AB0
:10080000BCEEC00A8DED020A0398007D0138014656
:100810000191052853D80199DFE801F0442A3710E7
:10082000031D029840F21421C2F200010A685063CD
:100830000A68002090630968C86344E0029840F2A7
:100840001421C2F200010A6850630A680020906314
:100850000968C86337E040F21421C2F200010A6857
:1008600000205063029A0B689A630968C8632AE003
:1008700040F21421C2F200010A6800205063029A7B
:100880000B689A630968C8631DE040F21421C2F244
:1008900000010A68002050630A68906302980968A2
:1008A000C86310E040F21421C2F200010A6800207F
:1008B00050630A68906302980968C86303E003986C
:1008C00000F004F8FFE704B080BD000081B00090A4
:1008D0000099002081F829000099486240F2142113
:1008E000C2F200010A6850630A6890630968C8632D
:1008F00001B0704780B582B001908DED000A01987B
:1009000090F82900012801D0FFE718E00198FFF7CF
:10091000F7FE019890F8280020B9FFE70198FFF74B
:1009200063FF0CE0019890F82800012806D1FFE74A
:1009300001989DED000AFFF767FEFFE7FFE702B0B1
:1009400080BD0000FFE7FEE780B540F2E000C2F2A4
:10095000000000F025FF80BD80B588B007900798A3
:1009600004300590079800680290B0F5807F0BD0A6
:10097000FFE7029840F20111884217D0FFE7029882
:10098000B0F5407F24D056E00798007B04280CDBAC
:10099000FFE70598006806909DED060A40F23430A6
:1009A000C2F20000FFF7EAFEFFE745E00798007B90
:1009B00004280CDBFFE70598006806909DED060A09
:1009C00040F23430C2F20000FFF7C6FEFFE733E02A
:1009D0000798007B05282DDBFFE7059800788DF848
:1009E00013000598D0F8010003909DF8130001460C
:1009F0000191012808D0FFE7019802280BD0FFE7FA
:100A0000019803280ED014E0039840F23431C2F26A
:100A10000001C8620DE0039840F23431C2F20001D7
:100A2000086306E0039840F23431C2F200014863E3
:100A3000FFE7FFE700E0FFE708B080BD80B58EB0BC
:100A40000D900C910D98002105AA03AB00F09EFDBE
:100A500088BBFFE740F28401C2F20001019188687F
:100A60000130886001F01AFF0199086101200870C7
:100A700005980C99086009980C9908730798043830
:100A8000B0FA80F040090C99487300200290FFE70B
:100A9000029807280BDCFFE7029A03A8805C0C99F8
:100AA00011440871FFE7029801300290F0E70C98BA
:100AB000FFF752FFFFE70EB080BD000080B582B0A7
:100AC00001228DF8072040F201200DF1070100F00E
:100AD00003F802B080BD000080B58AB0099008918B
:100AE0008DF81F2009980190002002900390049037
:100AF0009DF81F1005918DF81800089A40F2E0004B
:100B0000C2F2000001A96B4600F090FC40B9FFE77B
:100B100040F28401C2F2000148680130486007E0F9
:100B200040F28401C2F20001C8680130C860FFE7EA
:100B30000AB080BD80B584B08DED030ACDED020A08
:100B400003980090029801904FF4007069460822C3
:100B5000FFF7C2FF04B080BD84B08DED030ACDED78
:100B6000020A8DED011A00900398009908609DED2E
:100B7000031A9DED020A30EE000A30EE010A9FEDE5
:100B8000041A80EE010A009880ED010A04B0704753
:100B9000D7B3DD3F80B540F20810C2F2000001F08B
:100BA00015FA80BD82B001900198007810384AF69D
:100BB000AB21CAF6AA21A0FB011000090090009900
:100BC00047F21C50C0F60000405C0199C8650098CF
:100BD000042807D3FFE701990868042262F309009B
:100BE000886506E00199086840F2FF329043886505
:100BF000FFE70198806D02B07047000086B0059055
:100C000000208DF813000598806A0390059880698C
:100C100010BBFFE70398029003281BD80299DFE876
:100C200001F0020D0218059890F82F00C00720B1BE
:100C3000FFE701208DF81300FFE70CE00598C06A7C
:100C4000B0F1C07F04D1FFE701208DF81300FFE76A
:100C500001E000E0FFE745E005988069B0F5005F3E
:100C600025D1FFE70398019003281ED80199DFE8FA
:100C700001F00206021101208DF8130016E005981C
:100C800090F82F00C00720B1FFE701208DF8130076
:100C9000FFE70BE00598C06AB0F1C07F04D1FFE721
:100CA00001208DF81300FFE700E0FFE719E003984B
:100CB0000090032804D3FFE70098032804D00EE037
:100CC00001208DF813000BE0059890F82F00C00765
:100CD00020B1FFE701208DF81300FFE700E0FFE7F8
:100CE000FFE7FFE79DF8130006B07047704700006C
:100CF00083B002908DED010A029890ED000A90ED0C
:100D0000011A30EE410A8DED000A9DED000A9FEDBB
:100D1000201AB4EE410AF1EE10FA09DDFFE79DED6D
:100D2000000A9FED1E1A30EE010A8DED000A13E055
:100D30009DED000A9FED171AB4EE410AF1EE10FA8C
:100D400009DAFFE79DED000A9FED131A30EE010A64
:100D50008DED000AFFE7FFE79DED010AB5EE400AC1
:100D6000F1EE10FA0ADDFFE79DED000A9DED011A94
:100D700080EE010A029880ED020A03E00299002049
:100D80008860FFE7029890ED020A03B0704700BF49
:100D9000DB0F4940DB0F49C0DB0FC940DB0FC9C087
:100DA00080B582B001908DED000A01990868486015
:100DB000019804F0F3F801989DED000AFFF798FF01
:100DC00002B080BD72B6FFE7FEE7000080B58AB0D2
:100DD00009908DED080ACDED070A8DED061ACDEDCF
:100DE000051A8DED042A0598099908620598099954
:100DF00088649DED080ADDED070A9DED061A099845
:100E0000FFF7AAFE099890ED120A00F1080104F01C
:100E1000D9FC099901F1100091ED120A02A9019182
:100E200004F084F80198099A02F12C013C3204F094
:100E3000B5FE0AB080BD000081B0009001B07047DF
:100E400085B00390029100200190FFE7039890F88D
:100E50003C00012804D1FFE702208DF81300F7E0E1
:100E60000399012081F83C00FFE7FFE70298006842
:100E70000A281CD3FFE70298008800EB4000A0F18D
:100E80001E01072000FA01F203980168C868904328
:100E9000C86002998868098801EB41011E3900FA8F
:100EA00001F203980168C8681043C86018E002980E
:100EB000008800EB4001072000FA01F20398016866
:100EC00008699043086102998868098801EB41012B
:100ED00000FA01F203980168086910430861FFE70E
:100EE0000298406806281BD8FFE70298406800EB8C
:100EF0008000411F1F2000FA01F203980168486B2F
:100F00009043486302990888496801EB81010539DB
:100F100000FA01F203980168486B104348633DE012
:100F2000029840680C281CD8FFE70298406800EB44
:100F30008000A0F123011F2000FA01F2039801684C
:100F4000086B9043086302990888496801EB8101A6
:100F5000233900FA01F203980168086B1043086313
:100F60001BE00298406800EB8000A0F141011F20C7
:100F700000FA01F203980168C86A9043C8620299B6
:100F80000888496801EB8101413900FA01F20398B0
:100F90000168C86A1043C862FFE7FFE742F2003009
:100FA000C4F2010000900398006842F20001C4F20C
:100FB000010188420BD1FFE702980068122806D190
:100FC000FFE70099486840F480004860FFE7039815
:100FD000006842F20001C4F2010188422ED1FFE70D
:100FE00002980068102805D0FFE7029800681128D1
:100FF00024D1FFE70099486840F400004860029857
:101000000068102819D1FFE740F20000C2F200008A
:1010100000684DF68361C4F21B31A0FB0110800C07
:1010200000EB800040000190FFE7019820B1FFE74E
:10103000019801380190F8E7FFE7FFE7FFE7039920
:10104000002081F83C00FFE700208DF81300FFE747
:101050009DF8130005B0704781B0009001B0704753
:1010600081B0009001B0704780B586B00590002037
:101070000490039005980068006802900598006845
:1010800040680190029800F002000490019800F07E
:1010900020000390049800284AD0FFE70398002816
:1010A00046D0FFE70598006CC006002806D4FFE78D
:1010B0000599086C40F400700864FFE70598006823
:1010C000806810F0405F2AD1FFE70598007E30BBB2
:1010D000FFE705980068C06A10F4700F07D0FFE7BB
:1010E0000598006880684005002818D4FFE7059837
:1010F0000168486820F0200048600599086C20F4D9
:10110000807008640598006CC004002806D4FFE7CE
:101110000599086C40F001000864FFE7FFE70598B7
:10112000FFF79AFF059801686FF012000860FFE76B
:10113000029800F004000490019800F080000390F1
:101140000498002858D0FFE70398002854D0FFE700
:101150000598006CC006002806D4FFE70599086CC6
:1011600040F400500864FFE705980068806810F4B8
:10117000401F38D1FFE705980068806B10F4401FCE
:1011800007D0FFE7059800688068400500282AD44A
:10119000FFE70598006840684005002823D4FFE772
:1011A00005980068806810F0405F1CD1FFE7059843
:1011B000007EC0B9FFE705980168486820F080000C
:1011C00048600599086C20F4805008640598006C0C
:1011D000C005002806D4FFE70599086C40F001001F
:1011E0000864FFE7FFE70598FFF726FE059801680A
:1011F0006FF00C000860FFE7029800F00100049017
:10120000019800F0400003900498C0B1FFE70398F4
:10121000A8B1FFE7059800680068C00770B1FFE754
:101220000599086C40F480300864059800F07EF859
:10123000059801686FF001000860FFE7FFE702987A
:1012400000F020000490019800F080600390049862
:10125000B0B1FFE7039898B1FFE70599486C40F0FB
:1012600002004864059801686FF020000090086053
:101270000598FFF7F5FE0098059909680860FFE7F3
:1012800006B080BD80B584B0029000208DF80700C4
:10129000029820B9FFE701208DF80F0042E0029884
:1012A000806A0121C0F60071884201D0FFE7FFE7A4
:1012B0000298006C50B9FFE7029800F03BF80299E1
:1012C00000204864029981F83C00FFE70298006C16
:1012D000C006002817D4FFE70298006C40F0020017
:1012E00020F48850029908640298FFF7C7F8029921
:1012F000002048640298006C40F0010020F00200D9
:101300000299086403E001208DF80700FFE7FFE77A
:101310000299002081F83C00FFE79DF807008DF856
:101320000F00FFE79DF80F0004B080BD81B0009072
:1013300001B0704780B58CB00B9000200A900990E6
:101340000890079006900B98006842F20001C4F2E2
:101350000101884267D1FFE7FFE70020059043F6CF
:101360004400C4F20200016841F480710160006829
:1013700000F4807005900598FFE7FFE700200490D7
:1013800043F63000C4F20200016841F0040101603C
:10139000006800F0040004900498FFE7072006901E
:1013A0000320079000200290089040F60000C4F24D
:1013B000020006A901F052F8029940F20810C2F2A8
:1013C0000000039046F21042C4F202020260416043
:1013D0008160C1604FF4806202614FF4006242613B
:1013E0004FF400528261C1614FF4003202624162E7
:1013F00000F07CFF18B1FFE7FFF7E4FCFFE7FFE731
:101400000B9840F20811C2F2000181630B988863C7
:10141000FFE7122001900221002201F071FC0198E7
:1014200001F064FCFFE70CB080BD000088B00690BE
:10143000059104920393069890F820008DF8070018
:1014400006980068806800900598806808B9FFE7F2
:1014500000E0FFE79DF80700012806D0FFE79DF8B0
:101460000700022840F08080FFE79DF80300400756
:1014700000280CD4FFE79DF803000007002806D4DD
:10148000FFE79DF80300C006002864D5FFE7009839
:10149000C0F301600290029901208840039908601E
:1014A0000598806868B9FFE705980168C06840EA58
:1014B000415006990968029A01EB0211C1F88001B6
:1014C0000EE005994A688868C96840EAC200084386
:1014D00006990968029A01EB0211C1F88001FFE741
:1014E0000598006906990968029A01EB0211C1F892
:1014F00084010598007D01280CD1FFE7069800685B
:10150000029900EB0111D1F8840140F48070C1F818
:101510008401FFE70498406806990968029A01EB84
:101520000211C1F88C010498006806990968029AB2
:1015300001EB0211C1F8880106980068029900EBDE
:101540000111D1F8800140F00100C1F880010020B4
:101550008DF81F0011E00699486A40F400104862B7
:1015600001208DF81F0008E00699486A40F48020A9
:10157000486201208DF81F00FFE79DF81F0008B0AA
:101580007047000081B0009001B0704786B00490B1
:10159000039102920193049890F820008DF80300C3
:1015A0009DF80300012806D0FFE79DF803000228FC
:1015B00040F0E880FFE7039880B9FFE704980068EF
:1015C000C068800748B9FFE70499486A40F40010F2
:1015D000486201208DF81700DDE00FE004980068F4
:1015E0000069800748B9FFE70499486A40F4001091
:1015F000486201208DF81700CDE0FFE704980068ED
:10160000039900EB0110D0F8B00100F0040002993A
:1016100088600298806858B9FFE7049800680399C9
:1016200000EB0110D0F8B001400D029908600AE00B
:1016300004980068039900EB0110D0F8B001C008CD
:1016400002994860FFE704980068039900EB0110D5
:10165000D0F8B00100F002000299C8600498006858
:10166000039900EB0110D0F8B40100F00F00082836
:1016700004D3FFE70299082008610BE00498006892
:10168000039900EB0110D0F8B40100F00F000299AB
:101690000861FFE704980068039900EB0110D0F897
:1016A000B40180B2000A0299886104980068039925
:1016B00000EB0110D0F8B401000C029948610498C5
:1016C0000068039900EB0110D0F8B8010199087087
:1016D00004980068039900EB0110D0F8B801000AE3
:1016E0000199487004980068039900EB0110D0F844
:1016F000B801000C0199887004980068039900EB08
:101700000110D0F8B801000E0199C8700498006863
:10171000039900EB0110D0F8BC01019908710498FD
:101720000068039900EB0110D0F8BC01000A019990
:10173000487104980068039900EB0110D0F8BC01CF
:10174000000C0199887104980068039900EB01105E
:10175000D0F8BC01000E0199C871039838B9FFE7B1
:1017600004980168C86840F02000C86006E004984A
:101770000168086940F020000861FFE700208DF84B
:10178000170008E00499486A40F48020486201206C
:101790008DF81700FFE79DF8170006B070470000AE
:1017A00080B58AB0099000200890099800684069C7
:1017B000079009980068406806900998006880685A
:1017C000059009980068C06804900998006800694D
:1017D000039009980068806902909DF81C00C0077A
:1017E000002800F09480FFE79DF81400C00758B36C
:1017F000FFE709980168012088609DF814008007C0
:10180000002804D5FFE7099800F030FB1BE09DF8A5
:1018100014004007002805D5FFE7089840F4006051
:1018200008900FE09DF814000007002805D5FFE799
:10183000089840F48050089003E0099800F012FBEB
:10184000FFE7FFE7FFE7FFE79DF81500C00760B37C
:10185000FFE7099801684FF4807088609DF81500D3
:101860008007002804D5FFE7099800F007FB1BE07C
:101870009DF815004007002805D5FFE7089840F4BB
:10188000005008900FE09DF815000007002805D5CE
:10189000FFE7089840F48040089003E0099800F0C2
:1018A000E9FAFFE7FFE7FFE7FFE79DF81600C0074B
:1018B00060B3FFE7099801684FF4803088609DF8B5
:1018C00016008007002804D5FFE7099800F0DEFA2B
:1018D0001BE09DF816004007002805D5FFE7089893
:1018E00040F4004008900FE09DF816000007002823
:1018F00005D5FFE7089840F48030089003E0099888
:1019000000F0C0FAFFE7FFE7FFE7FFE7FFE79DF81A
:101910001C000007002810D5FFE79DF81000C00646
:10192000002809D5FFE7089840F40070089009984E
:1019300001681020C860FFE7FFE79DF81C00400722
:1019400000280FD5FFE79DF810000007002808D5F4
:10195000FFE7099801680820C860099800F05EFA5E
:10196000FFE7FFE79DF81C00800700280BD5FFE785
:1019700009980068C068800720B1FFE7099800F067
:1019800051FAFFE7FFE79DF81C004006002810D53C
:10199000FFE79DF80C00C006002809D5FFE708986E
:1019A00040F4806008900998016810200861FFE702
:1019B000FFE79DF81C00800600280FD5FFE79DF883
:1019C0000C000007002808D5FFE7099801680820E7
:1019D0000861099800F03AFAFFE7FFE79DF81C005C
:1019E000C00600280BD5FFE709980068006980074A
:1019F00020B1FFE7099800F02DFAFFE7FFE79DF817
:101A00001E00800700280FD5FFE79DF81800C006CC
:101A1000002808D5FFE70998016810204860099858
:101A200000F01CFAFFE7FFE79DF81E00C00778B141
:101A3000FFE79DF818000007002808D5FFE7099880
:101A4000016808204860099800F024FAFFE7FFE7E2
:101A50009DF81D000006002840F18D80FFE79DF8ED
:101A600018004007002840F18180FFE79DF81D0025
:101A7000C00750B1FFE79DF80800C00728B1FFE795
:101A8000089840F001000890FFE79DF81D008007CE
:101A900000280BD5FFE79DF808008007002805D532
:101AA000FFE7089840F002000890FFE79DF81D004E
:101AB000400700280BD5FFE79DF8080040070028E5
:101AC00005D5FFE7089840F004000890FFE79DF86F
:101AD0001D000007002848D5FFE79DF8080010F01A
:101AE000700F42D0FFE7029800F0700001460191AC
:101AF000102814D0FFE70198202815D0FFE701989F
:101B0000302816D0FFE70198402817D0FFE701984A
:101B1000502818D0FFE70198602819D01DE00898D8
:101B200040F00800089019E0089840F01000089074
:101B300014E0089840F0200008900FE0089840F06A
:101B4000400008900AE0089840F08000089005E006
:101B5000089840F48070089000E0FFE70998016859
:101B6000886920F070008861FFE7FFE70998016845
:101B700004204860FFE7089848B1FFE7089A0999F0
:101B8000486A104348620998FFF7FCFCFFE70AB077
:101B900080BD000080B584B00290029820B9FFE7B4
:101BA00001208DF80F00E0E0029890F8200020B9A5
:101BB000FFE7029800F0DEF8FFE702980168086886
:101BC00040F00100086000F069FE0190FFE7029814
:101BD00000684068C007A8B9FFE700F05FFE019900
:101BE000401A0B280DD3FFE70299486A40F40030F1
:101BF00048620299052081F8200001208DF80F002D
:101C0000B3E0E4E702980168086820F00200086089
:101C100000F044FE0190FFE70298006840688007EA
:101C2000002815D5FFE700F039FE0199401A0B286E
:101C30000DD3FFE70299486A40F4003048620299E8
:101C4000052081F8200001208DF80F008DE0E3E7EA
:101C50000298007E012807D1FFE702980168086812
:101C600040F08000086006E002980168086820F0F3
:101C700080000860FFE70298407E012807D1FFE757
:101C800002980168086840F04000086006E0029889
:101C90000168086820F040000860FFE70298807E35
:101CA000012807D1FFE702980168086840F020008A
:101CB000086006E002980168086820F020000860CB
:101CC000FFE70298C07E012807D1FFE7029801686C
:101CD000086820F01000086006E0029801680868B3
:101CE00040F010000860FFE70298007F012807D14C
:101CF000FFE702980168086840F00800086006E005
:101D000002980168086820F008000860FFE7029860
:101D1000407F012807D1FFE702980168086840F07A
:101D20000400086006E002980168086820F00400DA
:101D30000860FFE7029B19685A689868D3F80CC0DE
:101D400040EA0C00D3F810C040EA0C005B6918436D
:101D5000013A1043C861029900204862029A0121A9
:101D600082F820108DF80F00FFE79DF80F0004B0F7
:101D700080BD000080B58CB00B9000200A900990C7
:101D80000890079006900B98006846F20041C4F254
:101D90000001884240D1FFE7FFE70020059043F6AD
:101DA0004000C4F20200016841F000710160006867
:101DB00000F0007005900598FFE7FFE70020049011
:101DC00043F63000C4F20200016841F002010160F4
:101DD000006800F0020004900498FFE74FF44070A0
:101DE00006900220019007900020029008900320A6
:101DF000099009200A9040F20040C4F2020006A9AE
:101E000000F02CFB0199029A1420039000F078FF57
:101E1000039800F06BFFFFE70CB080BD81B000902D
:101E200001B0704780B586B005900598006846F20D
:101E30000041C4F20001884205D1FFE7059801A9DD
:101E4000FEF7FCFDFFE706B080BD000081B000900A
:101E500001B0704781B0009001B0704781B0009030
:101E600001B0704781B0009001B0704781B0009020
:101E700001B0704781B0009001B0704781B0009010
:101E800001B0704781B0009001B0704781B0009000
:101E900001B0704781B0009001B0704780B584B048
:101EA00002900298806D019000F0F8FC009002987A
:101EB00090F8350002280DD0FFE702998020486590
:101EC000FFE70299002081F83400FFE701208DF838
:101ED0000F0055E002980168086820F016000860BD
:101EE00002980168486920F0800048610298006CFF
:101EF00020B9FFE70298806C38B1FFE702980168CB
:101F0000086820F008000860FFE702980168086888
:101F100020F001000860FFE7029800680068C00731
:101F2000C8B1FFE700F0BAFC0099401A062811D3A7
:101F3000FFE70299202048650299032081F83500C7
:101F4000FFE70299002081F83400FFE703208DF8B5
:101F50000F0015E0E0E70298C16D3F20884001992D
:101F600088600299012081F83500FFE7029900207E
:101F700081F83400FFE7FFE700208DF80F00FFE74E
:101F80009DF80F0004B080BD82B00090009890F8DA
:101F90003500022807D0FFE700998020486501201E
:101FA0008DF807000EE00099052081F835000098B3
:101FB0000168086820F001000860FFE700208DF844
:101FC0000700FFE79DF8070002B0704780B586B0B4
:101FD00005900020039040F20000C2F2000000686B
:101FE00048F2B511C1F64E31A0FB0110800A0290F3
:101FF0000598806D019001980068049004980599F7
:10200000C96DC840000700281AD5FFE70598006889
:1020100000684007002812D5FFE7059801680868A6
:1020200020F0040008600598C16D082088400199DF
:1020300088600599486D40F001004865FFE7FFE7BB
:1020400004980599C96DC840C007A0B1FFE705987D
:1020500000684069000600280CD5FFE70598C16DAF
:1020600001208840019988600599486D40F0020080
:102070004865FFE7FFE704980599C96DC840400728
:10208000002814D5FFE7059800680068800700283D
:102090000CD5FFE70598C16D042088400199886040
:1020A0000599486D40F004004865FFE7FFE7049894
:1020B0000599C96DC840C006002847D5FFE70598B7
:1020C00000680068000700283FD5FFE70598C16D4C
:1020D00010208840019988600598006800684003D6
:1020E00000281AD5FFE7059800680068000300285B
:1020F00009D4FFE70598006C20B1FFE70598016C53
:102100008847FFE708E00598806C20B1FFE7059855
:10211000816C8847FFE7FFE716E0059800680068D4
:10212000C005002807D4FFE705980168086820F07B
:1021300008000860FFE70598006C20B1FFE70598EC
:10214000016C8847FFE7FFE7FFE7FFE70498059981
:10215000C96DC8408006002840F18D80FFE70598D2
:1021600000680068C006002840F18480FFE70598F9
:10217000C16D2020884001998860059890F835004D
:10218000052834D1FFE705980168086820F016009B
:10219000086005980168486920F08000486105984A
:1021A000006C20B9FFE70598806C38B1FFE705980F
:1021B0000168086820F008000860FFE70598C16D15
:1021C0003F208840019988600599012081F83500F9
:1021D000FFE70599002081F83400FFE70598006DBE
:1021E00020B1FFE70598016D8847FFE77BE0059880
:1021F00000680068400300281AD5FFE705980068CA
:1022000000680003002809D4FFE70598406C20B15E
:10221000FFE70598416C8847FFE708E00598C06B29
:1022200020B1FFE70598C16B8847FFE7FFE720E093
:10223000059800680068C005002811D4FFE70598DC
:102240000168086820F0100008600599012081F8F5
:102250003500FFE70599002081F83400FFE7FFE72C
:102260000598C06B20B1FFE70598C16B8847FFE771
:10227000FFE7FFE7FFE70598406DA0B3FFE705988C
:10228000406DC00730B3FFE70599052081F83500A0
:1022900005980168086820F001000860FFE70398CE
:1022A000013003900299884201D9FFE707E0FFE778
:1022B000059800680068C0070028F0D1FFE705997D
:1022C000012081F83500FFE70599002081F83400EE
:1022D000FFE7FFE70598C06C20B1FFE70598C16CE8
:1022E0008847FFE7FFE706B080BD000080B586B0F5
:1022F00004900020039000F0D1FA0290049820B9D5
:10230000FFE701208DF81700A3E00498406A08B1A8
:10231000FFE7FFE70499022081F83500FFE7049901
:10232000002081F83400FFE704980168086820F075
:1023300001000860FFE7049800680068C00790B1DA
:10234000FFE700F0ABFA0299401A06280AD3FFE72C
:102350000499202048650499032081F835008DF800
:10236000170076E0E7E70498006800680390039898
:1023700048F23F01CFF21001084003900499009108
:102380004868D1F808C0CB680A6940EA0C001843D5
:1023900010434A6910438A691043CA691043096AA5
:1023A00001430398084303900498406A042808D125
:1023B000FFE70499C86A096B014303980843039037
:1023C000FFE7039804990968086004980068406969
:1023D0000390039820F0070003900498416A039843
:1023E000084303900498406A04281AD1FFE7049830
:1023F000816A0398084303900498C06A80B1FFE79C
:102400000498FEF7FBFB50B1FFE7049940204865B4
:102410000499012081F835008DF8170019E0FFE7D5
:10242000FFE703980499096848610498FEF7BAFB2E
:1024300001900498C16D3F208840019988600499FB
:1024400000204865049A012182F835108DF81700A4
:10245000FFE79DF8170006B080BD00008EB00D901C
:102460000C9100200A90099008900B90FFE70B98C0
:102470000F2800F2CC81FFE70B99012088400A90D9
:102480000C9800680A990840099009980A998842AE
:1024900040F0B881FFE70C98406800F00300012885
:1024A00007D0FFE70C98406800F0030002282FD106
:1024B000FFE70D98806808900B984100032000FA10
:1024C00001F10898884308900C98C0680B9949005E
:1024D00000FA01F108980843089008980D9988605F
:1024E0000D98406808900B99012000FA01F10898B6
:1024F000884308900C984068C0F300100B9900FACC
:1025000001F108980843089008980D994860FFE782
:102510000C98406800F00300032818D0FFE70D98DE
:10252000C06808900B984100032000FA01F1089858
:10253000884308900C9880680B99490000FA01F1D3
:1025400008980843089008980D99C860FFE70C9810
:10255000406800F00300022826D1FFE70D980B9990
:102560006FF0030202EA51010844006A08900B98D8
:1025700000F0070081000F2000FA01F1089888435D
:1025800008900C9800690B9901F00701890000FA86
:1025900001F108980843089008980D990B9B02EAEE
:1025A000530211440862FFE70D98006808900B98E9
:1025B0004100032000FA01F10898884308900C9824
:1025C000406800F003000B99490000FA01F10898F7
:1025D0000843089008980D9908600C988079800746
:1025E000002800F00E81FFE7FFE70020079043F688
:1025F0004400C4F20200016841F4804101600068B7
:1026000000F4804007900798FFE70B9820F0030044
:1026100043F60801C4F20101405808900B9800F0FD
:10262000030081000F2000FA01F108988843089008
:102630000D980021C4F20201884203D1FFE7002077
:1026400006905EE00D9840F20041C4F2020188421B
:1026500003D1FFE70120059050E00D9840F60001FE
:10266000C4F20201884203D1FFE70220049042E055
:102670000D9840F60041C4F20201884203D1FFE701
:102680000320039034E00D9841F20001C4F20201EE
:10269000884203D1FFE70420029026E00D9841F222
:1026A0000041C4F20201884203D1FFE705200190F6
:1026B00018E00D9841F60001C4F20201884203D1EE
:1026C000FFE7062000900AE00D9941F60042C4F2AF
:1026D00002020820914208BF07200090FFE70098FF
:1026E0000190FFE701980290FFE702980390FFE74F
:1026F00003980490FFE704980590FFE7059806907B
:10270000FFE70698C0B20B9901F00301890000FAB7
:1027100001F108980843089008980B9921F00301EB
:1027200043F60802C4F20102885043F60840C4F29E
:1027300001000068089009990898884308900C984F
:102740008079C006002805D5FFE709990898084355
:102750000890FFE7089843F60841C4F201010860B9
:1027600043F60C40C4F201000068089009990898EB
:10277000884308900C9880798006002805D5FFE7EB
:102780000999089808430890FFE7089843F60C4118
:10279000C4F20101086043F60440C4F2010000687D
:1027A000089009990898884308900C9880798007C8
:1027B000002805D5FFE70999089808430890FFE726
:1027C000089843F60441C4F20101086043F6004052
:1027D000C4F201000068089009990898884308909D
:1027E0000C988079C00728B1FFE709990898084339
:1027F0000890FFE7089843F60041C4F20101086021
:10280000FFE7FFE7FFE70B9801300B902FE60EB0D4
:102810007047000082B00190ADF802100198006985
:10282000BDF80210084204D0FFE701208DF8010036
:1028300003E000208DF80100FFE79DF8010002B0E1
:102840007047000083B00290ADF80610029840690E
:102850000090009ABDF8060002EA0001904340EAA9
:1028600001400299886103B07047000082B0019076
:10287000ADF802108DF801209DF8010028B1FFE7A6
:10288000BDF802000199886105E0BDF8020000046E
:1028900001998861FFE702B07047000040F2E04014
:1028A000C2F200000068704780B58EB00C900C98A2
:1028B00020B9FFE701208DF8370043E10C9890F82C
:1028C0003D0040B9FFE70C99002081F83C000C98CE
:1028D00000F03CF9FFE70C99242081F83D000C98AA
:1028E0000168086820F0010008600C980168086819
:1028F00040F4004008600C980168086820F400402B
:10290000086000F057FB0A900C98406848F2A061FC
:10291000C0F2010188420BD8FFE70A9948F28042D1
:10292000C0F21E020020914238BF012009900AE047
:102930000A9940F60012C0F23D020020914238BFD1
:1029400001200990FFE70998012804D1FFE7012041
:102950008DF83700F6E00A984DF68361C4F21B311A
:10296000A0FB0110800C0B900C980068406820F0D0
:102970003F000B9908430C99096848600C9800685F
:10298000006A20F03F0008900C98406848F2A0616F
:10299000C0F20101884204D8FFE70B98013007908C
:1029A0000EE00B984FF49671484344F6D351C1F2B0
:1029B0006201A0FB0101012000EB91100790FFE7ED
:1029C0000898079908430C99096808620C980068F0
:1029D000C0694CF6FF71884306900C98406848F235
:1029E000A061C0F2010188421FD8FFE70A980138B0
:1029F0000C9949684900B0FBF1F001306FF31F30CA
:102A0000032803D8FFE7042005900BE00A9801385B
:102A10000C9949684900B0FBF1F001306FF31F30A9
:102A20000590FFE7059804904CE00C98806868B921
:102A3000FFE70A9801380C99496801EB4101B0FBA6
:102A4000F1F001306FF31F3003900DE00A98013868
:102A50000C99496819225143B0FBF1F0013004216F
:102A600061F31F300390FFE70398000518B9FFE7F3
:102A70000120029023E00C98806868B9FFE70A986B
:102A800001380C99496801EB4101B0FBF1F00130CC
:102A90006FF31F3001900DE00A9801380C994968D6
:102AA00019225143B0FBF1F00130042161F31F30D2
:102AB0000190FFE7019840F400400290FFE7029880
:102AC0000490FFE70698049908430C990968C861C7
:102AD0000C980068006820F0C0000C9B1968DA6947
:102AE0001B6A1A43104308600C980068806848F21B
:102AF000FF3188430C9A1168D36812691A43104356
:102B000088600C980068C06820F0FF000C9B196872
:102B10005A699B691A431043C8600C980168086899
:102B200040F0010008600C99002008640C9A2021F4
:102B300082F83D100C9908630C9981F83E008DF8DD
:102B40003700FFE79DF837000EB080BD80B588B034
:102B5000079000200690059004900390029007983B
:102B6000006845F20041C4F20001884234D1FFE719
:102B7000FFE70020019043F63000C4F20200016834
:102B800041F002010160006800F00200019001982C
:102B9000FFE7C02002901220039000200490032041
:102BA00005900420069040F20040C4F2020002A901
:102BB000FFF754FCFFE70020009043F64000C4F20A
:102BC0000200016841F400110160006800F4001087
:102BD00000900098FFE7FFE708B080BD40F20400D6
:102BE000C2F20000027840F2E041C2F2000108683F
:102BF000104408607047000080B543F60041C4F2FD
:102C00000201086840F400700860086840F48060C1
:102C10000860086840F480700860032000F08AF8BB
:102C20000F2000F005F800F03BF8002080BD000008
:102C300080B582B0009040F20000C2F2000000684F
:102C400040F20401C2F200010A784FF47A71B1FB3C
:102C5000F2F1B0FBF1F001F041F820B1FFE7012003
:102C60008DF8070018E000980F280DD8FFE70099AD
:102C70004FF0FF30002200F043F8009840F20801C6
:102C8000C2F20001086003E001208DF8070003E0B4
:102C900000208DF80700FFE79DF8070002B080BD17
:102CA00082B0FFE70020019043F64400C4F2020026
:102CB000016841F480410160006800F480400190A7
:102CC0000198FFE7FFE70020009043F64000C4F2C0
:102CD0000200016841F080510160006800F08050FE
:102CE00000900098FFE702B07047000080B582B006
:102CF0008DF807009DF9070004F026F902B080BDA9
:102D000080B586B08DF817000491039200200290E0
:102D100004F032F902909DF917000190029804998D
:102D2000039A02F073FC0146019804F02DF906B0F5
:102D300080BD000080B582B00190019804F046F992
:102D400002B080BD80B584B002900191029820B994
:102D5000FFE701208DF80F0021E1019843F60041C3
:102D6000C4F20201096801F00701884212D9FFE7A5
:102D7000019943F60040C4F202000170006800F0BF
:102D800007000199884204D0FFE701208DF80F0069
:102D900005E1FFE702980078800700282AD5FFE7C1
:102DA000029800784007002809D5FFE743F608019C
:102DB000C4F20201086840F4E0500860FFE702989E
:102DC00000780007002809D5FFE743F60801C4F2A0
:102DD0000201086840F460400860FFE743F608011C
:102DE000C4F20201086820F0F000029A92681043D1
:102DF0000860FFE702980078C00700286ED0FFE760
:102E000002984068012811D1FFE743F60000C4F2A0
:102E10000200006800F400310020B0EB514F04D1F3
:102E2000FFE701208DF80F00B9E02CE00298406820
:102E3000022805D0FFE702984068032811D1FFE778
:102E400043F60000C4F20200006800F000710020A8
:102E5000B0EB516F04D1FFE701208DF80F009EE029
:102E600010E043F60000C4F20200006800F0020126
:102E70000020B0EB510F04D1FFE701208DF80F00C7
:102E80008DE0FFE7FFE743F60801C4F2020108689E
:102E900020F00300029A526810430860FFF7FEFC1E
:102EA0000090FFE743F60800C4F20200006800F05B
:102EB0000C0002994968B0EB810F0ED0FFE7FFF7D5
:102EC000EDFC0099401A41F28931884204D3FFE7B2
:102ED00003208DF80F0062E0E4E7FFE7019843F676
:102EE0000041C4F20201096801F00701884212D2D0
:102EF000FFE7019943F60040C4F202000170006848
:102F000000F007000199884204D0FFE701208DF806
:102F10000F0044E0FFE702980078400700280CD536
:102F2000FFE743F60801C4F20201086820F4E0500C
:102F3000029AD26810430860FFE702980078000701
:102F400000280DD5FFE743F60801C4F20201086826
:102F500020F46040029A126940EAC2000860FFE76C
:102F600000F04CF843F60801C4F202010968C9B246
:102F70000A0947F20451C0F60001895CC84040F2DA
:102F80000001C2F20001086040F20800C2F2000035
:102F90000068FFF74DFE00208DF80F00FFE79DF859
:102FA0000F0004B080BD000040F20000C2F200003B
:102FB0000068704780B5FFF7F7FF43F60801C4F2D9
:102FC00002010968C1F3822247F21451C0F60001E0
:102FD000895CC84080BD000080B5FFF7E5FF43F67F
:102FE0000801C4F20201096889B24A0B47F2145180
:102FF000C0F60001895CC84080BD000080B586B085
:103000000020059004900390029043F60800C4F25B
:103010000200006800F00C000146019140B1FFE79A
:10302000019804280AD0FFE7019808280CD04FE047
:1030300042F20040C0F2F40002904FE041F2002062
:10304000C0F27A00029049E043F60400C4F20200A4
:10305000016801F03F01059100684002002813D586
:10306000FFE743F60400C4F202000068C0F38810D2
:1030700041F20021C0F27A01A0FB0101059A002370
:10308000FDF708F9049012E043F60400C4F20200D0
:103090000068C0F3881042F20041C0F2F401A0FBC6
:1030A0000101059A0023FDF7F5F80490FFE743F6C8
:1030B0000400C4F20200006800F44031022000EB7A
:1030C000D130039004980399B0FBF1F0029005E031
:1030D00042F20040C0F2F4000290FFE7029806B00E
:1030E00080BD000080B586B00490049820B9FFE749
:1030F00001208DF8170050E304980078C0070028DD
:1031000000F0A580FFE743F60800C4F20200006863
:1031100000F00C00042813D0FFE743F60800C4F2C7
:103120000200006800F00C0008281ED1FFE743F6FB
:103130000400C4F2020000684002002815D5FFE731
:1031400043F60000C4F20200006800F400310020E1
:10315000B0EB514F08D0FFE70498406820B9FFE773
:1031600001208DF8170018E370E0FFE7049840682D
:10317000B0F5803F09D1FFE743F60001C4F2020138
:10318000086840F48030086020E004984068B0F59A
:10319000A02F0DD1FFE743F60001C4F20201086839
:1031A00040F480200860086840F4803008600CE03B
:1031B00043F60001C4F20201086820F48030086080
:1031C000086820F480200860FFE7FFE7FFE7049825
:1031D0004068E8B1FFE7FFF761FB0390FFE743F6C4
:1031E0000000C4F20200006800F400310020B0EBDF
:1031F000514F0CD1FFE7FFF751FB0399401A6528A7
:1032000004D3FFE703208DF81700C6E2E7E71CE0D0
:10321000FFF744FB0390FFE743F60000C4F202000F
:10322000006800F400310020B0EB514F0CD0FFE7F4
:10323000FFF734FB0399401A652804D3FFE7032006
:103240008DF81700A9E2E7E7FFE7FFE7FFE704983B
:1032500000788007002840F19680FFE743F60800D9
:10326000C4F20200006810F00C0F13D0FFE743F621
:103270000800C4F20200006800F00C0008282CD1FD
:10328000FFE743F60400C4F2020000684002002891
:1032900023D4FFE743F60000C4F20200006800F008
:1032A00002010020B0EB510F09D0FFE70498C0687D
:1032B000012804D0FFE701208DF817006DE243F6E6
:1032C0000001C4F20201086820F0F800049A1269B3
:1032D00040EAC2000860FFE754E00498C06870B399
:1032E000FFE70021C4F2472101200860FFF7D6FA6A
:1032F0000390FFE743F60000C4F20200006800F00C
:1033000002010020B0EB510F0CD1FFE7FFF7C6FA26
:103310000399401A032804D3FFE703208DF8170010
:103320003BE2E7E743F60001C4F20201086820F03F
:10333000F800049A126940EAC200086021E0002106
:10334000C4F2472100200860FFF7A8FA0390FFE7C6
:1033500043F60000C4F20200006800F00201002001
:10336000B0EB510F0CD0FFE7FFF798FA0399401A22
:10337000032804D3FFE703208DF817000DE2E7E7E9
:10338000FFE7FFE7FFE704980078000700284BD528
:10339000FFE70498406918B3FFE740F68061C4F284
:1033A000472101200860FFF779FA0390FFE743F611
:1033B0007400C4F20200006800F002010020B0EBCB
:1033C000510F0CD1FFE7FFF769FA0399401A032860
:1033D00004D3FFE703208DF81700DEE1E7E722E0E2
:1033E00040F68061C4F2472100200860FFF756FADA
:1033F0000390FFE743F67400C4F20200006800F097
:1034000002010020B0EB510F0CD0FFE7FFF746FAA6
:103410000399401A032804D3FFE703208DF817000F
:10342000BBE1E7E7FFE7FFE70498007840070028E3
:1034300040F1CE80FFE700208DF8070043F6400002
:10344000C4F202000068C000002815D4FFE7FFE7BF
:103450000020009043F64000C4F20200016841F0F1
:1034600080510160006800F0805000900098FFE7F4
:1034700001208DF80700FFE747F20000C4F20000CA
:103480000068C005002822D4FFE747F20001C4F21B
:103490000001086840F480700860FFF7FFF90390AE
:1034A000FFE747F20000C4F200000068C0050028F2
:1034B0000CD4FFE7FFF7F2F90399401A032804D36D
:1034C000FFE703208DF8170067E1EAE7FFE7FFE772
:1034D00004988068012809D1FFE743F67001C4F21F
:1034E0000201086840F0010008601FE0049880684D
:1034F00005280DD1FFE743F67001C4F20201086808
:1035000040F004000860086840F0010008600CE02A
:1035100043F67001C4F20201086820F0010008605F
:10352000086820F004000860FFE7FFE7FFE7049861
:103530008068F8B1FFE7FFF7B1F90390FFE743F6C2
:103540007000C4F20200006800F002010020B0EB3D
:10355000510F0ED1FFE7FFF7A1F90399401A41F28D
:103560008931884204D3FFE703208DF8170014E166
:10357000E5E71EE0FFF792F90390FFE743F67000DE
:10358000C4F20200006800F002010020B0EB510F0D
:103590000ED0FFE7FFF782F90399401A41F2893113
:1035A000884204D3FFE703208DF81700F5E0E5E734
:1035B000FFE79DF80700012809D1FFE743F6400126
:1035C000C4F20201086820F080500860FFE7FFE7BE
:1035D00004988069002800F0DC80FFE743F60800CB
:1035E000C4F20200006800F00C00082800F085809A
:1035F000FFE70498806902285CD1FFE76021C4F2EC
:10360000472100200860FFF749F90390FFE743F6E0
:103610000000C4F20200006800F000710020B0EB6E
:10362000516F0CD0FFE7FFF739F90399401A0328CF
:1036300004D3FFE703208DF81700AEE0E7E7049915
:10364000C869D1F820C04B6A8A6A40EA0C0040EA97
:103650008310D2034FF6FF739A43A2F580321043D2
:10366000C96A40EA016043F60401C4F2020108603D
:103670006021C4F2472101200860FFF70FF9039091
:10368000FFE743F60000C4F20200006800F000719A
:103690000020B0EB516F0CD1FFE7FFF7FFF8039963
:1036A000401A032804D3FFE703208DF8170074E0C5
:1036B000E7E721E06021C4F2472100200860FFF71E
:1036C000EDF80390FFE743F60000C4F20200006843
:1036D00000F000710020B0EB516F0CD0FFE7FFF756
:1036E000DDF80399401A032804D3FFE703208DF87F
:1036F000170052E0E7E7FFE74AE0049880690128F5
:1037000004D1FFE701208DF8170046E043F60400DE
:10371000C4F202000068029004988069012831D048
:10372000FFE7029800F480000499C969884229D112
:10373000FFE7029800F03F000499096A884221D10E
:10374000FFE7029847F6C07108400499496AB0EB58
:10375000811F17D1FFE7029800F440300499896A6D
:10376000C9034FF6FF729143A1F58031884209D118
:10377000FFE7029800F070600499C96AB0EB016F2E
:1037800004D0FFE701208DF8170006E0FFE7FFE710
:10379000FFE700208DF81700FFE79DF8170006B03F
:1037A00080BD000080B584B00290029820B9FFE788
:1037B00001208DF80F0072E00298406A60B9FFE7BF
:1037C00002984068B0F5827F01D1FFE703E00299DB
:1037D0000020C861FFE705E0029900200861029916
:1037E0004861FFE7029900208862029890F8510032
:1037F00040B9FFE70299002081F85000029800F0DC
:1038000053F8FFE70299022081F8510002980168FD
:10381000086820F040000860029A01921168506820
:10382000D2F808C0D36800F482700CF4044C6044F1
:1038300003F400631844136903F002031844536946
:1038400003F001031844936903F400731844D36927
:1038500003F038031844136A03F080031843926A94
:1038600002F4005210430860029801688369426ABA
:10387000042000EA134002F010021044486002984D
:103880000168C86920F40060C86102990020486599
:10389000029A012182F851108DF80F00FFE79DF880
:1038A0000F0004B080BD000080B588B007900020F4
:1038B000069005900490039002900798006843F2E8
:1038C0000001C4F20101884233D1FFE7FFE7002085
:1038D000019043F64400C4F20200016841F48051B3
:1038E0000160006800F4805001900198FFE7FFE755
:1038F0000020009043F63000C4F20200016841F05D
:1039000001010160006800F0010000900098FFE7ED
:10391000E0200290022003900020049003200590F4
:10392000052006900020C4F2020002A9FEF796FDD1
:10393000FFE708B080BD000080B58CB0DDF838C06E
:103940000A9009910892ADF81E3001200390FEF70D
:10395000A5FF04900A9890F851008DF817000A9876
:1039600040680690BDF81E00ADF81C009DF81700D9
:10397000012812D0FFE70698B0F5827F09D1FFE752
:103980000A98806828B9FFE79DF81700042804D03A
:10399000FFE702208DF82F009BE1099838B1FFE77F
:1039A000089820B1FFE7BDF81E0020B9FFE701200D
:1039B0008DF82F008DE1FFE70A9890F8500001285C
:1039C00004D1FFE702208DF82F0082E10A9901203F
:1039D00081F85000FFE7FFE70A9890F851000428AB
:1039E00005D0FFE70A99052081F85100FFE70A9901
:1039F0000020486508990A9A9163BDF81E100A9A3A
:103A0000D187BDF81E100A9A918709990A9A116305
:103A1000BDF81E100A9AD186BDF81E100A9A91862A
:103A20000A9908640A9948640A980068006800F0D6
:103A30004000402807D0FFE70A980168086840F076
:103A400040000860FFE70A98C068B0F5006F40F0DA
:103A50008180FFE70A98406828B1FFE7BDF81C00A5
:103A600001280ED1FFE70A980168006B0088C86042
:103A70000A99086B023008630A99C88E0138C88613
:103A8000FFE7FFE70A98C18E0120019039B9FFE7EF
:103A90000A98C08F002818BF01200190FFE7019805
:103AA000C007002855D0FFE70A98006880688007A3
:103AB000002818D5FFE70A98C08EA0B1FFE7039849
:103AC000012810D1FFE70A980168006B0088C860E0
:103AD0000A99086B023008630A99C88E0138C886B3
:103AE00000200390FFE70A9800688068C007A8B12B
:103AF000FFE70A98C08F88B1FFE70A980068C0689E
:103B00000A99896B08800A99886B023088630A9940
:103B1000C88F0138C88701200390FFE7FEF7BEFE7B
:103B20000499401A0E99884212D3FFE70E9801308B
:103B300070B1FFE70A99012081F85100FFE70A9967
:103B4000002081F85000FFE703208DF82F00C0E02F
:103B500098E782E00A98406828B1FFE7BDF81C00AA
:103B600001280ED1FFE70A980168006B00780873FE
:103B70000A99086B013008630A99C88E0138C88613
:103B8000FFE7FFE70A98C18E0120009039B9FFE7EF
:103B90000A98C08F002818BF01200090FFE7009806
:103BA000C007002858D0FFE70A980068806880079F
:103BB000002818D5FFE70A98C08EA0B1FFE7039848
:103BC000012810D1FFE70A980168006B007808739C
:103BD0000A99086B013008630A99C88E0138C886B3
:103BE00000200390FFE70A9800688068C007A8B12A
:103BF000FFE70A98C08F88B1FFE70A980068C0689D
:103C00000A99896B08700A99886B013088630A9950
:103C1000C88F0138C88701200390FFE7FEF73EFEFA
:103C20000499401A0E99884204D3FFE70E98013098
:103C300018B9FFE70E9870B9FFE70A99012081F8DB
:103C40005100FFE70A99002081F85000FFE70320A8
:103C50008DF82F003DE095E7FFE70A980E99049A4A
:103C600001F09EFE68B1FFE70A9920204865FFE752
:103C70000A99002081F85000FFE701208DF82F00FD
:103C800027E00A98806870B9FFE7FFE700200290FC
:103C90000A980068C06802900A98006880680290DC
:103CA0000298FFE7FFE70A99012081F85100FFE73A
:103CB0000A99002081F85000FFE70A98406D20B172
:103CC000FFE701208DF82F0003E000208DF82F0082
:103CD000FFE79DF82F000CB080BD000080B582B0DA
:103CE0000190019802F060F902B080BD81B00090AF
:103CF00001B0704781B0009001B0704784B002906D
:103D0000019100200090FFE7029890F83C00012804
:103D100004D1FFE702208DF80F0044E00299012052
:103D200081F83C00FFE7FFE7009820F0FF000199D1
:103D3000C96808430090009820F440700199896890
:103D400008430090009820F4806001994968084376
:103D50000090009820F400600199096808430090E1
:103D6000009820F480500199096908430090009858
:103D700020F400500199496908430090009820F40C
:103D800080400199C9690843009000980299096828
:103D90004864FFE70299002081F83C00FFE700201B
:103DA0008DF80F00FFE79DF80F0004B0704700008A
:103DB00080B58CB00A9009910A9820B9FFE70120DC
:103DC0008DF82F007CE00A9890F83D0040B9FFE79D
:103DD0000A99002081F83C000A9800F075F8FFE786
:103DE0000A99022081F83D000A9951F8040B02F06B
:103DF000CBFA0A980068099A11689368032202F0C6
:103E0000A9FD0A980168886920F00C00886109986A
:103E100042680A9801688869104388610A980168B5
:103E2000486840F0800048600A980168886820F07F
:103E3000700088600A980168886840F040008860D7
:103E40000A980168886820F0070088600A9801686D
:103E5000886840F004008860002001900690079078
:103E6000702102910890059004900998C068039011
:103E70000A98006802A902F0FFFB01980A990A68F3
:103E8000516821F0700151600A990A68516841F047
:103E9000500151600A9A012182F846100A9A82F86C
:103EA0003E100A9A82F83F100A9A82F842100A9A43
:103EB00082F843100A9A82F83D108DF82F00FFE730
:103EC0009DF82F000CB080BD80B58CB00B90002009
:103ED0000A9009900890079006900B980068B0F13E
:103EE000804F3DD1FFE7FFE70020059043F64000FB
:103EF000C4F20200016841F001010160006800F0B5
:103F0000010005900598FFE7FFE70020049043F6C5
:103F10003000C4F20200016841F001010160006854
:103F200000F0010004900498FFE7072006900220AB
:103F300007900020029008900990012001900A90BB
:103F40000020C4F2020006A9FEF788FA0199029A3D
:103F50001C200390FEF7D4FE0398FEF7C7FEFFE790
:103F60000CB080BD85B003900291FFE7039890F8F4
:103F70003C00012804D1FFE702208DF813007EE009
:103F80000399012081F83C00FFE7FFE70399022035
:103F900081F83D000398006840680190039800682C
:103FA00080680090019820F07000019002980168EC
:103FB00001980843019001980399096848600398A3
:103FC00000680021C4F2010188423CD0FFE7039859
:103FD0000068B0F1804F36D0FFE70398006840F2E8
:103FE0000041C4F2000188422DD0FFE70398006829
:103FF00040F60001C4F20001884224D0FFE7039894
:10400000006840F60041C4F2000188421BD0FFE77F
:104010000398006840F20041C4F20101884212D0C6
:10402000FFE70398006844F20001C4F201018842EE
:1040300009D0FFE70398006841F60001C4F20001CF
:1040400088420ED1FFE7009820F08000009002988F
:1040500041680098084300900098039909688860B7
:10406000FFE70399012081F83D00FFE70399002055
:1040700081F83C00FFE700208DF81300FFE79DF872
:10408000130005B07047000080B582B00090009822
:1040900020B9FFE701208DF807003FE0009890F875
:1040A0003D0040B9FFE70099002081F83C000098EE
:1040B00000F038F8FFE70099022081F83D000099F0
:1040C00051F8040B02F060F90099012081F84600D4
:1040D000FFE70099012081F83E00009981F83F0038
:1040E000009981F84000009981F84100FFE7FFE75F
:1040F0000099012081F84200009981F8430000995D
:1041000081F84400009981F84500FFE700990120FB
:1041100081F83D0000208DF80700FFE79DF80700BB
:1041200002B080BD80B586B005900598006800217A
:10413000C4F2010188421BD1FFE7FFE70020049091
:1041400043F64400C4F20200016841F0010101603D
:10415000006800F0010004900498FFE71920029025
:1041600000221146FEF7CCFD0298FEF7BFFD24E0C9
:104170000598006841F20001C4F2000188421BD199
:10418000FFE7FFE70020039043F64000C4F202007F
:10419000016841F010010160006800F01000039018
:1041A0000398FFE73620019003210022FEF7A8FDC7
:1041B0000198FEF79BFDFFE7FFE706B080BD00001A
:1041C00080B586B00490039100208DF80B00FFE7C6
:1041D000049890F83C00012804D1FFE702208DF8F4
:1041E0001700ABE00499012081F83C00FFE7FFE7EE
:1041F0000499022081F83D000498006880680190CD
:10420000019820F077000190019820F47F40019000
:104210000198049909688860039800680090002854
:1042200072D0FFE7009810286ED0FFE70098202892
:104230006AD0FFE70098302866D0FFE70098402852
:1042400055D0FFE70098502837D0FFE70098602846
:1042500040D0FFE7009870280BD0FFE70098B0F53A
:10426000805F05D0FFE70098B0F5005F16D052E000
:1042700055E004980068039B5A689968DB6802F06F
:1042800055F90498006880680190019840F0770023
:104290000190019804990968886040E004980068DA
:1042A000039B5A689968DB6802F040F9049801683A
:1042B000886840F48040886031E004980068039A80
:1042C0005168D26802F01EFB04980068502102F089
:1042D00047F924E004980068039A5168D26802F014
:1042E000C5FB04980068602102F03AF917E00498D1
:1042F0000068039A5168D26802F004FB04980068D1
:10430000402102F02DF90AE0049800680399096839
:1043100002F026F903E001208DF80B00FFE7049975
:10432000012081F83D00FFE70499002081F83C005E
:10433000FFE79DF80B008DF81700FFE79DF81700C9
:1043400006B080BD81B0009001B0704780B584B0E8
:10435000039003980068C0680290039800680069A1
:1043600001909DF804008007002824D5FFE79DF800
:104370000800800700281DD5FFE7039801686FF04B
:10438000020008610399012008770398006880699A
:10439000800720B1FFE70398FFF7D4FF06E00398FA
:1043A00000F03EF9039800F033FAFFE7039900208C
:1043B0000877FFE7FFE79DF804004007002825D5B0
:1043C000FFE79DF80800400700281ED5FFE7039887
:1043D00001686FF0040008610399022008770398D0
:1043E0000068806910F4407F04D0FFE70398FFF76E
:1043F000A9FF06E0039800F013F9039800F008FA0B
:10440000FFE7039900200877FFE7FFE79DF8040026
:104410000007002824D5FFE79DF8080000070028C2
:104420001DD5FFE7039801686FF008000861039944
:104430000420087703980068C069800720B1FFE76F
:104440000398FFF77FFF06E0039800F0E9F8039870
:1044500000F0DEF9FFE7039900200877FFE7FFE7A8
:104460009DF80400C006002825D5FFE79DF8080048
:10447000C00600281ED5FFE7039801686FF0100002
:10448000086103990820087703980068C06910F450
:10449000407F04D0FFE70398FFF754FF06E003983E
:1044A00000F0BEF8039800F0B3F9FFE7039900208D
:1044B0000877FFE7FFE79DF80400C00778B1FFE742
:1044C0009DF80800C00748B1FFE7039801686FF046
:1044D00001000861039800F09FF9FFE7FFE79DF8EE
:1044E00004000006002810D5FFE79DF8080000062C
:1044F000002809D5FFE7039801686FF08000086184
:104500000398FFF7F3FBFFE7FFE79DF80400400681
:10451000002810D5FFE79DF808004006002809D5BF
:10452000FFE7039801686FF040000861039800F00E
:10453000CBF9FFE7FFE79DF804008006002810D5BF
:10454000FFE79DF808008006002809D5FFE70398DB
:1045500001686FF0200008610398FFF7CBFBFFE7CD
:10456000FFE704B080BD000080B58CB00B90002048
:104570000A9009900890079006900B980068002117
:10458000C4F20101884249D1FFE7FFE7002005900E
:1045900043F63000C4F20200016841F002010160FC
:1045A000006800F0020005900598FFE7FFE7002093
:1045B000049043F63000C4F20200016841F00101AA
:1045C0000160006800F0010004900498FFE74FF4D8
:1045D0006040069002200090079000200190089013
:1045E0000990012002900A9040F20040C4F20200BB
:1045F00006A90391FDF732FF009B019A02980399E7
:104600004FF4E06CCDF818C00793089209920A9015
:104610000020C4F20200FDF721FFFFE70CB080BDCF
:1046200081B0009001B0704780B586B004900391CE
:10463000029200208DF80700FFE7049890F83C00F4
:10464000012804D1FFE702208DF8170089E00499C2
:10465000012081F83C00FFE7FFE7029800900C285A
:1046600000F270800099DFE801F0076D6D6D206D3C
:104670006D6D3A6D6D6D530004980068039901F0FB
:1046800085FF04980168886940F0080088610498F3
:104690000168886920F00400886103980269049821
:1046A000016888691043886150E0049800680399A4
:1046B00001F0E2FF04980168886940F400608861B5
:1046C00004980168886920F4806088610398026911
:1046D00004980168886940EA0220886136E00498FD
:1046E0000068039902F042F804980168C86940F034
:1046F0000800C86104980168C86920F00400C86116
:104700000398026904980168C8691043C8611DE0F4
:1047100004980068039902F0A3F804980168C86936
:1047200040F40060C86104980168C86920F48060A2
:10473000C8610398026904980168C86940EA0220C8
:10474000C86103E001208DF80700FFE7FFE7049947
:10475000002081F83C00FFE79DF807008DF8170066
:10476000FFE79DF8170006B080BD000080B582B05D
:104770000090009820B9FFE701208DF807003FE086
:10478000009890F83D0040B9FFE70099002081F8BB
:104790003C00009800F038F8FFE70099022081F80B
:1047A0003D00009951F8040B01F0EEFD0099012045
:1047B00081F84600FFE70099012081F83E0000994A
:1047C00081F83F00009981F84000009981F841008C
:1047D000FFE7FFE70099012081F84200009981F886
:1047E0004300009981F84400009981F84500FFE7F3
:1047F0000099012081F83D0000208DF80700FFE7B7
:104800009DF8070002B080BD81B0009001B07047F4
:1048100081B0009001B0704780B584B003900398D8
:10482000006841F20001C4F2000188421ED1FFE796
:1048300040F27001C2F20001029108680130086084
:1048400001F0F8FC0298006847F6D501C2F2E96170
:1048500048434FEAB00041F26E21C0F28301884222
:1048600003D8FFE701F0CEFCFFE7FFE703980068FD
:10487000B0F1804F12D0FFE70398006840F200418A
:10488000C4F20001884209D0FFE70398006840F6AF
:104890000001C4F20001884214D1FFE740F2343035
:1048A000C2F2000090F8280058B9FFE740F2343017
:1048B000C2F200000190FBF723FF0198FBF794FF81
:1048C000FFE7FFE704B080BD81B0009001B0704702
:1048D00082B00190ADF8021002B0704781B0009034
:1048E00001B0704780B592B01190119800680068CF
:1048F000109011980068C0680F9011980068406986
:104900000E9000200D900C90109800F00F000D906C
:104910000D9888B9FFE79DF84000800600280AD569
:10492000FFE79DF83C008006002804D5FFE71198BA
:1049300002F032F902E2FFE70D98002800F0C28091
:10494000FFE79DF83800C00738B9FFE7BDF83C0025
:1049500010F4907F00F0B680FFE79DF84000C0079C
:1049600058B1FFE79DF83D00C00730B1FFE711994E
:10497000486C40F001004864FFE79DF840004007A4
:1049800000280BD5FFE79DF83800C00730B1FFE7DE
:104990001199486C40F002004864FFE79DF8400020
:1049A000800700280BD5FFE79DF83800C00730B11D
:1049B000FFE71199486C40F004004864FFE79DF858
:1049C00040000007002811D5FFE79DF83C00800655
:1049D000002805D4FFE79DF83800C00730B1FFE795
:1049E0001199486C40F008004864FFE71198406C4A
:1049F000002866D0FFE79DF84000800600280AD511
:104A0000FFE79DF83C008006002804D5FFE71198D9
:104A100002F0C2F8FFE7119800684069C0F3801007
:104A20000C901198406C0007002804D4FFE70C9804
:104A300000283ED0FFE7119802F050F81198006866
:104A40004069400600282FD5FFE7FFE7FFE71198F0
:104A5000006850E8050F20F040000B90FFE70B992D
:104A60001198026842E805100028F0D1FFE7FFE73F
:104A70001198C06B98B1FFE71198C16B46F6C12041
:104A8000C0F6000008651198C06BFDF77DFA28B1EB
:104A9000FFE71198C06B016D8847FFE703E01198AD
:104AA000FFF71CFFFFE703E01198FFF717FFFFE791
:104AB00006E01198FFF712FF119900204864FFE704
:104AC000FFE73BE11198006B012840F01781FFE7F9
:104AD0009DF84000C006002840F11081FFE79DF8D6
:104AE0003C00C006002840F10981FFE7FFE70020F5
:104AF0000A901198006800680A9011980068406850
:104B00000A900A98FFE7119800684069400600285B
:104B100040F19A80FFE71198C06B00684068ADF8DB
:104B20002600BDF82600002875D0FFE7BDF8260056
:104B30001199898D88426EDAFFE7BDF82600119938
:104B4000C8851198C06BC069B0F5807F58D0FFE769
:104B5000FFE7FFE71198006850E8030F20F480702A
:104B60000890FFE708991198026842E803100028AE
:104B7000F0D1FFE7FFE7FFE7FFE71198006850E893
:104B8000050F20F001000790FFE7079911980268D0
:104B900042E805100028F0D1FFE7FFE7FFE7FFE755
:104BA0001198006850E8050F20F040000690FFE7DC
:104BB00006991198026842E805100028F0D1FFE735
:104BC000FFE71199202081F8420011990020086325
:104BD000FFE7FFE71198006850E8030F20F010008E
:104BE0000590FFE705991198026842E80310002834
:104BF000F0D1FFE7FFE71198C06BFDF74FF9FFE732
:104C00001199022048631198818DC28D891A89B249
:104C1000FFF75EFE17E0BDF826001199898D8842E6
:104C200010D1FFE71198C06BC069B0F5807F08D143
:104C3000FFE71199022048631198818DFFF748FE24
:104C4000FFE7FFE7FFE779E01199888DC98D401AEA
:104C5000ADF812001198C08D00284ED0FFE7BDF8C6
:104C60001200002849D0FFE7FFE7FFE7119800682E
:104C700050E8030F20F490700390FFE70399119818
:104C8000026842E803100028F0D1FFE7FFE7FFE7E2
:104C9000FFE71198006850E8050F20F0010002902E
:104CA000FFE702991198026842E805100028F0D148
:104CB000FFE7FFE71199202081F8420011990020B9
:104CC0000863FFE7FFE71198006850E8030F20F042
:104CD00010000190FFE701991198026842E8031063
:104CE0000028F0D1FFE7FFE71199022048631198EF
:104CF000BDF81210FFF7ECFDFFE71FE09DF8400044
:104D0000000600280AD5FFE79DF83C0000060028B1
:104D100004D5FFE7119802F0C3F80FE09DF84000BA
:104D2000400600280AD5FFE79DF83C004006002811
:104D300004D5FFE7119801F01BFFFFE712B080BD1B
:104D400080B582B00090009820B9FFE701208DF86F
:104D5000070040E00098806908B1FFE700E0FFE746
:104D6000009890F8410040B9FFE70099002081F8D1
:104D70004000009800F034F8FFE70099242081F803
:104D8000410000980168C86820F40050C86000988D
:104D900001F0B6FF00980168086920F490400861AE
:104DA00000980168486920F02A004861009801686D
:104DB000C86840F40050C860009900204864009A18
:104DC000202182F84110009A82F84210009948632D
:104DD0008DF80700FFE79DF8070002B080BD0000D6
:104DE00080B58CB00B9000200A9009900890079035
:104DF00006900B98006844F20041C4F2000188421A
:104E00003FD1FFE7FFE70020059043F64000C4F2E2
:104E10000200016841F400310160006800F40030D4
:104E200005900598FFE7FFE70020049043F6300067
:104E3000C4F20200016841F008010160006800F05E
:104E4000080004900498FFE760200690022001907B
:104E500007900020029008900320099007200A90F4
:104E600040F60040C4F2020006A9FDF7F7FA0199E6
:104E7000029A26200390FDF743FF0398FDF736FFC3
:104E8000FFE70CB080BD000080B584B002900191B6
:104E9000ADF80220029890F84200202817D1FFE7D1
:104EA000019820B1FFE7BDF8020020B9FFE701201B
:104EB0008DF80F000FE00299002008630298019915
:104EC000BDF8022001F0BAFF8DF80F0003E00220C8
:104ED0008DF80F00FFE79DF80F0004B080BD0000C3
:104EE00080B582B001900198006844F20041C4F29C
:104EF0000001884211D1FFE740F27400C2F20000C5
:104F00000090007800F098FC009940F2EC20C2F28A
:104F100000000122FFF7B8FFFFE702B080BD0000EC
:104F200081B0009001B07047FFE7FEE780B586B022
:104F300005908DED040A03919DED040A02F096F8A8
:104F40008DED020A9DED040A02F038F98DED010A9B
:104F500005989DED022A90ED000A90ED011A9DED55
:104F6000013A21EE031A20EE020A30EE410A0398BC
:104F700080ED000A05989DED012A90ED000A90ED64
:104F8000011A9DED023A21EE031A20EE020A30EEDC
:104F9000010A039880ED010A06B080BD80B586B095
:104FA000059000228DF812208DF813200020C4F205
:104FB0000200029010210191FDF758FC69464FF064
:104FC000FF30086040F2BC10C2F200000DF1120187
:104FD00004AA0223FEF7B0FC019902980122FDF712
:104FE00045FC9DF810109DF8110040EA0120ADF835
:104FF0000E00BDF80E006FF39F30ADF80E00BDF847
:105000000E0005990882BDF80E0000EE100AB8EEF9
:10501000400A9FED221A20EE010A9FED211A20EE90
:10502000010A059880ED030A059890ED030A90EDBA
:10503000051A9FED1C2A20EE020A30EE010A80EDCF
:10504000000AFFE7059890ED000A9FED171AB4EEED
:10505000410AF1EE10FA0ADBFFE7059890ED000A2D
:105060009FED121A30EE010A80ED000AEAE7FFE731
:10507000059890ED000AB5EE400AF1EE10FA0ADA52
:10508000FFE7059890ED000A9FED071A30EE010A40
:1050900080ED000AECE706B080BD00BF0000B4431D
:1050A0000000803835FA8E3CDB0FC940DB0FC9C0E9
:1050B00080B586B000210091059104910391029181
:1050C00040F29800C2F20000019042F20002C4F2E5
:1050D000010202604FF4803242608160012202616D
:1050E000017680F82010C1620123C0F6007383624C
:1050F000C160C26180F830204161FCF7C3F818B18B
:10510000FFE7FBF75FFEFFE70A2002900120039014
:105110000020049040F29800C2F2000002A9FBF7C0
:105120008FFE18B1FFE7FBF74DFEFFE706B080BD2D
:1051300080B582B040F2E000C2F20000009046F27A
:105140000041C4F20001016006214160002101918B
:105150008160C1604FF4102202614FF4001242617D
:10516000017641768176C17601774177FCF712FDB1
:1051700018B1FFE7FBF726FEFFE702B080BD000095
:1051800080B582B0FFE70020019043F63000C4F202
:105190000200016841F480010160006800F48000B1
:1051A00001900198FFE73820009000221146FDF79A
:1051B000A7FD0098FDF79AFD02B080BD80B592B0C2
:1051C0000020119010900F900E900D90FFE700209E
:1051D0000C9043F63000C4F20200016841F08001F7
:1051E0000160006800F080000C900C98FFE7FFE77A
:1051F00000200B9043F63000C4F20200016841F039
:1052000004010160006800F004000B900B98FFE7B8
:10521000FFE700200A9043F63000C4F20200016864
:1052200041F001010160006800F001000A900A9855
:10523000FFE7FFE70020099043F63000C4F20200C8
:10524000016841F010010160006800F01000099051
:105250000998FFE7FFE70020089043F63000C4F20A
:105260000200016841F002010160006800F00200E4
:1052700008900898FFE7FFE70020079043F630000A
:10528000C4F20200016841F008010160006800F00A
:10529000080007900798FFE70020C4F20200019081
:1052A0001021009100220492FDF7E0FA049A41F2E5
:1052B0000000C4F2020005904FF4C0610291FDF7B6
:1052C000D5FA009A019804990D92012203920E9248
:1052D0000F9110910DA90691FDF7C0F8DDF808C0F7
:1052E000039B049A05980699CDF834C00E930F924B
:1052F0001092FDF7B3F8049A059806994FF40063ED
:105300000D930E920F92FDF7A9F812B080BD000028
:1053100080B582B040F26810C2F20000019045F200
:105320000041C4F20001016048F2A061C0F2010135
:10533000416000218160C1604FF48042026141619F
:105340008161C1610162FDF7AFFA18B1FFE7FBF7B8
:1053500039FDFFE702B080BD80B582B040F2BC10DD
:10536000C2F20000019043F20001C4F201010160A9
:105370004FF482714160002181604FF40062C2608D
:10538000016141614FF4007282611822C2610162C1
:10539000416281620A21C162FEF704FA18B1FFE797
:1053A000FBF710FDFFE702B080BD000080B598B0AC
:1053B0000021019117911691159114911391129159
:1053C000119110910F910E910D910C910B910A91E9
:1053D000099108910791069105910491039140F27A
:1053E0001420C2F2000002900022C4F20102026006
:1053F0004160816041F26802C260016141618021C7
:105400008161FEF741FE18B1FFE7FBF7DBFCFFE728
:105410004FF48050149040F21420C2F2000014A9FE
:10542000FEF7CEFE18B1FFE7FBF7CCFCFFE740F23A
:105430001420C2F20000FFF799F918B1FFE7FBF75B
:10544000C1FCFFE700201290139040F21420C2F23A
:10545000000012A9FEF786FD18B1FFE7FBF7B2FCCA
:10546000FFE760200B9000220C920D920E920F929B
:105470001092119240F21420C2F200000BA9FFF723
:10548000D3F818B1FFE7FBF79DFCFFE740F21420CB
:10549000C2F200000BA90422FFF7C6F818B1FFE71B
:1054A000FBF790FCFFE740F21420C2F200000BA9CA
:1054B0000822FFF7B9F818B1FFE7FBF783FCFFE715
:1054C0000020039004900590069007904FF400513F
:1054D00008910A9040F21420C2F2000003A9FEF7DE
:1054E0000DFC18B1FFE7FBF76DFCFFE740F214205D
:1054F000C2F20000FFF738F818B080BD80B588B060
:105500000021019107910691059104910391029167
:1055100040F25C20C2F200004FF080420260416025
:1055200081604FF0FF32C260016181610491059199
:105530000691079104A9FEF73BFC18B1FFE7FBF7C2
:1055400041FCFFE7502002900020039040F25C20D5
:10555000C2F2000002A9FEF705FD18B1FFE7FBF754
:1055600031FCFFE708B080BD80B582B00021019119
:10557000009140F2A420C2F2000041F20002C4F205
:105580000002026042F2D002426081600A21C160E2
:1055900080218161FEF778FD18B1FFE7FBF712FC6F
:1055A000FFE700200090019040F2A420C2F200002A
:1055B0006946FEF7D7FC18B1FFE7FBF703FCFFE7EE
:1055C00002B080BD80B582B040F2EC20C2F2000093
:1055D000019044F20041C4F2000101604FF4E13156
:1055E000416000218160C16001610C2242618161E2
:1055F000C161FFF7A5FB18B1FFE7FBF7E3FBFFE78E
:1056000002B080BDFFE7FEE7FFE7FEE788B0079046
:1056100006910592079800F0070004900498C0F1E5
:105620000700052803D3FFE70420019004E0049855
:10563000C0F107000190FFE701980390049804303F
:10564000062803D8FFE70020009003E00498033801
:105650000090FFE70098029006980399012202FA51
:1056600001F101390840029B984005999A40013A9E
:105670001140084308B0704786B005908DED040ACC
:10568000CDED030A049805990862059890ED070A84
:105690009DED041A30EE410A8DED020A059890ED59
:1056A000000A9DED021A20EE010A8DED000A059810
:1056B0009DED022A90ED010A90ED031A20EE020AF8
:1056C0009DED032A20EE020A30EE010A80ED030A66
:1056D000059890ED030A90ED051AB4EE410AF1EE3B
:1056E00010FA04DDFFE705994869C86015E00598E0
:1056F00090ED030A90ED051AB1EE411AB4EE410A9D
:10570000F1EE10FA08DAFFE7059890ED050AB1EE20
:10571000400A80ED030AFFE7FFE705989DED021AB6
:1057200090ED020A90ED042A31EE421A20EE010AB1
:105730009DED031A80EE010A8DED010A029805998C
:1057400008619DED000A059890ED031A30EE010AFC
:105750009DED011A30EE010A80ED090A059890EDE1
:10576000061A90ED090AB4EE410AF1EE10FA04DDD2
:10577000FFE705998869486215E0059890ED061ADB
:1057800090ED090AB1EE411AB4EE410AF1EE10FAB9
:1057900008DAFFE7059890ED060AB1EE400A80EDC1
:1057A000090AFFE7FFE7059890ED090A06B0704780
:1057B00082B001908DED000A00980199C86102B095
:1057C0007047000080B586B005908DED040A039106
:1057D0009DED040A01F04AFC8DED020A9DED040ADC
:1057E00001F0ECFC8DED010A05989DED022A90ED8B
:1057F000000A90ED011A9DED013A21EE031A20EE08
:10580000020A30EE010A039880ED000A05989DED2A
:10581000012A90ED001A90ED010A9DED023A20EE6A
:10582000030A21EE021A30EE410A039880ED010AC4
:1058300006B080BD7047000082B08DF8070040F2CE
:105840002440C2F2000090F883000146009106282F
:1058500000F29C800099DFE801F004152B37997263
:105860008E009DF80700AA280BD1FFE740F22441E3
:10587000C2F20001012081F88300002081F880003D
:10588000FFE78BE09DF80700552808D1FFE740F2BD
:105890002441C2F20001022081F8830007E040F2B7
:1058A0002441C2F20001002081F88300FFE775E087
:1058B0009DF8070040F22441C2F2000181F8820005
:1058C000032081F8830069E09DF8071040F224402E
:1058D000C2F2000080F8811090F88100012814DBEA
:1058E000FFE740F22440C2F2000090F8810038281F
:1058F0000BDCFFE740F22441C2F20001052081F8F1
:105900008300002081F8800018E040F22440C2F2B9
:10591000000090F8810040B9FFE740F22441C2F254
:105920000001062081F8830007E040F22441C2F222
:105930000001002081F88300FFE7FFE72EE09DF8DB
:10594000070040F22441C2F2000191F88020531C6C
:1059500081F88030885491F8800091F88110884255
:1059600008DBFFE740F22441C2F20001062081F883
:105970008300FFE712E040F22441C2F2000101205F
:1059800081F88400002081F8830007E040F2244180
:10599000C2F20001002081F88300FFE702B07047E7
:1059A00080B586B00490039102920498039B0299FB
:1059B0006A4611600221012200F058F848B1FFE761
:1059C0000499486D40F02000486503208DF81700C9
:1059D00048E040F20000C2F2000000684AF6AB2145
:1059E000CAF6AA21A0FB011000094FF2A171C1F271
:1059F000C601A0FB0110000C4FF47A7148430190DE
:105A000004984068B0F5827F15D1FFE70498039BA6
:105A100002996A4611608021002200F027F848B1FF
:105A2000FFE70499486D40F02000486503208DF899
:105A3000170017E012E0FFE7019808B9FFE70CE054
:105A4000019801380190FFE7049800688068C1B2AE
:105A50000020B0EBD11FEFD1FFE7FFE700208DF86A
:105A60001700FFE79DF8170006B080BD80B58AB02B
:105A7000DDF830C0089007918DF81B20059305983C
:105A80000190FCF70BFF024601980C99891A084413
:105A90000390FCF703FF0290039840F20001C2F26A
:105AA00000010968C1F3CB3148430490FFE708982F
:105AB0000068806807990840401AB0FA80F04009F1
:105AC0009DF81B1088425FD0FFE705980130002841
:105AD00059D0FFE7FCF7E2FE0299401A0399884289
