:020000040800F2
:1000000010090020550200087D310008692C000805
:100010007931000859040008C536000800000000C6
:100020000000000000000000000000008531000812
:1000300075040008000000008131000889310008C3
:100040006F0200086F0200086F0200086F020008CC
:100050006F0200086F0200086F0200086F020008BC
:100060006F0200086F0200086F0200086F020008AC
:100070006F0200086F0200086F0200086F0200089C
:100080006F0200086F0200084D0400086F020008AC
:100090005D0400086F0200086F0200086F0200088C
:1000A0006F0200084D3200086F0200086F0200085E
:1000B000593200086F0200086F0200086F02000842
:1000C0006F0200086F0200086F0200086F0200084C
:1000D0006F0200086F020008B93600086F020008BE
:1000E0006F0200086F0200086F0200086F0200082C
:1000F0006F0200086F0200086F0200086F0200081C
:100100006F0200086F0200086F0200086F0200080B
:100110006F0200086F020008653200086F020008D5
:10012000690400086F0200086F0200086F020008EF
:100130006F0200086F0200086F0200086F020008DB
:100140006F0200086F0200086F0200086F020008CB
:100150006F0200086F0200086F0200086F020008BB
:100160006F0200086F0200086F0200086F020008AB
:100170006F0200086F0200086F0200080000000014
:100180006F0200086F02000800F002F800F052F859
:1001900014A696E8000CB244B344DA4501D100F04D
:1001A00049F8BAE80F000FA696E83000A5EB040561
:1001B00004EB0607AAEB0704A7F101074FEA1515A0
:1001C0004FEA3414A4F10104AC4201D300F032F838
:1001D00013F0010F18BFFB1A43F0010300F001F800
:1001E000DBE718475035000070350000103A24BF97
:1001F00078C878C1FAD8520724BF30C830C144BF8C
:1002000004680C6070470000704700000023002461
:1002100000250026103A28BF78C1FBD8520728BF16
:1002200030C148BF0B6070471FB503F066FA1FBDB1
:1002300010B510BD00F0D0F81146FFF7F5FF03F040
:1002400043FA00F0EEF803B4FFF7F2FF03BC00F04E
:10025000F5F800000948804709480047FEE7FEE737
:10026000FEE7FEE7FEE7FEE7FEE7FEE7FEE7FEE766
:1002700004480549054A064B70470000393200081A
:10028000890100081003002010090020100500203B
:100290001005002053EA020C00F069802DE9F04BB4
:1002A0004FF00006002B1FBFB3FA83F503FA05F4E5
:1002B00024FA05F65E4012BF1643B2FA82F502FA3E
:1002C00005F4C5F120051EBF22FA05FC44EA0C0422
:1002D000203556EA044C4FEA144418BF641C4FF012
:1002E00000084FF00009904271EB030C39D300294C
:1002F00019BFB1FA81F701FA07F6B0FA80F700FAF0
:1003000007F6C7F120071EBF20FA07FC46EA0C06D5
:100310002037B6FBF4FCA7EB0507103F07F01F0BD7
:10032000CBF120062CFA06F60CFA0BFB44BFB346C1
:100330000026202FA4BF5E464FF0000B5BEA060CA0
:1003400008BF4FF0010B19EB0B0948EB0608ABFB9C
:10035000027C06FB02CC0BFB03CCC01B71EB0C0137
:10036000C1E70B46024641464846BDE8F08B13B54F
:10037000084318BF4FF0FF300146AFF30080BDE8DF
:100380001C4070474FF0000200B513469446964655
:10039000203922BFA0E80C50A0E80C50B1F1200198
:1003A000BFF4F7AF090728BFA0E80C5048BF0CC046
:1003B0005DF804EB890028BF40F8042B08BF7047A4
:1003C00048BF20F8022B11F0804F18BF00F8012B16
:1003D0007047704770477047754600F02BF8AE467F
:1003E00005006946534620F00700854618B020B541
:1003F000FFF73EFFBDE820404FF000064FF000073A
:100400004FF000084FF0000BAC46ACE8C009ACE878
:10041000C009ACE8C009ACE8C00921F007018D466D
:10042000704710B50446AFF300802046BDE8104089
:10043000FFF709BF0048704710000020014918204D
:10044000ABBEFEE7260002007047000040F27000DD
:10045000C2F2000000F0B8B8FEE7000040F2B800B9
:10046000C2F2000000F05EBA40F2E000C2F200000A
:1004700000F0B8BC7047000072B600BFFEE7000095
:100480007047000070B581B00022009290F83C20C7
:10049000012A03D1022001B070BD00BFD1F800E0F5
:1004A00001221FFA8EFC4FEA4C0380F83C200EEB31
:1004B0004E0213FA8EF31024BEF1090F88BFA3F188
:1004C0001E0288BF0C24036807251E59954026EAA2
:1004D00005051D518D681E5905FA02F232431A5165
:1004E0004968062906D801EB81014A1F194651F8CF
:1004F000345F0EE00C2901EB810105D8A1F1230244
:10050000194651F8305F04E0A1F14102194651F853
:100510002C5F1F24944025EA04040C600CFA02F2BC
:100520000C6842F2043CC4F2010C2243ACF5417465
:10053000A3420A603ED1BEF1120F07D1DCF80010D1
:1005400041F48001CCF8001034E000BF2EF001012E
:1005500010292FD1DCF80010BEF1100F41F400017A
:10056000CCF8001026D140F20801C2F2000109685F
:100570004DF68362C4F21B32A1FB0212910C01EB17
:100580008101490000910099A1B1009901390091C0
:10059000009979B1009901390091009951B1009900
:1005A00001390091009929B1009901390091009910
:1005B0000029EAD1002180F83C10002001B070BD74
:1005C000704700007047000070B504460068066878
:1005D0004568B10717D515F0200114D0216CC90664
:1005E00003D4216C41F400712164816811F0405FF3
:1005F00002D1217E002969D02046FFF7E1FF206863
:100600006FF012010160710714D515F0800111D04F
:10061000216CC90603D4216C41F400512164816826
:1006200011F4401F30D02046FFF72AFF20686FF0FA
:100630000C010160F10706D015F040011CBF0168F4
:100640005FEAC17112D1B1060FD515F0806108BF04
:1006500070BD616C6FF0200541F0020161640560BE
:100660002046FFF7AFFF2068056070BD206C40F4A6
:1006700080302064204600F0F1F820686FF001011E
:100680000160B106E1D4F0E7816B11F4401F02D0A4
:1006900081684905C7D441684905C4D4816811F00F
:1006A000405FC0D1217E0029BDD1416821F0800189
:1006B0004160206C20F480502064206CC005B2D4CE
:1006C000206C40F001002064ADE700BFC16A11F466
:1006D000700F03D0816849053FF58EAF416821F066
:1006E00020014160206C20F480702064206CC004E4
:1006F0003FF582AF206C40F0010020647CE70000F1
:10070000002804BF0120704710B5016C00293DD0BE
:10071000016CC90645D4016C41F2021291430231C9
:1007200042F204320164C4F20102116821F4403142
:100730001160136890E812102343D0F810E01360A2
:100740004A68012422F480724A604A68C0F6007444
:1007500042EA0E224A604A6822F040724A604A68C1
:1007600042EA0C024A608A6822F400628A60C26827
:100770008B681A438A60826A8B68A24223F0706396
:100780008B608B6810D123F0405216E0044600F0D5
:1007900067F820460021616484F83C10016CC906AA
:1007A000B9D5012153E000BF1A438A608A6822F05C
:1007B00040528A60C26A8B681A438A608A6822F053
:1007C00002028A608A68037E90F8204042EA43026F
:1007D0008A604A6884B142F400624A604A684EF214
:1007E000000322F460424A60426ACFF6FF734C680D
:1007F00003EB4232224301E022F400624A60CA6AFB
:1008000040F2000C22F47002CA62C3694269CFF65A
:10081000F07CCC6A0CEB03532343CB628B6823F44C
:1008200000738B6090F830308C6844EA43238B600F
:100830008B6823F480638B608B6843EA82228A6032
:1008400000214164026C012363F30102026400226F
:1008500080F83C20BDE81040084670477047000013
:1008600070B586B0044642F200002168C4F201006F
:10087000002681420596CDE903660296019601D0D5
:1008800006B070BD43F630010096C4F202014A6919
:1008900000F5684042F480724A614A6902F480724D
:1008A0000092009A00960A6842F004020A60096801
:1008B00001F0040100910099072101910321CDE984
:1008C000021601A900F022FC40F2E00546F21040B9
:1008D000C2F20005C4F202004FF48061C5E90006CF
:1008E00005F110004FF400624FF400534EC04FF476
:1008F0000030C5E908062846C5E9026600F054FB49
:10090000002818BFFFF7B8FD122002210022A563BE
:10091000AC6300F03FFE122000F02AFE06B070BD6E
:10092000704700002DE9F04F81B004460068466929
:10093000D0F804908768D0F80CB0D0F810A0D0F8A8
:100940001880F10704D1002530071DD424E000BF32
:10095000F90710D00121BA07816009D4780700F1A6
:10096000AF80380700F1B680204600F0D3F902E0EE
:10097000204600F0D1F90025F80500F18780F80342
:1009800000F1B180300707D51BF0100004D02068BB
:1009900045F400751021C160700708D51BF00800F0
:1009A00005D020680821C160204600F0A9F9B007F1
:1009B00006D52068C068800702D0204600F0A2F962
:1009C000700607D51AF0100004D0206845F4806541
:1009D00010210161B00608D51AF0080005D0206882
:1009E00008210161204600F08FF9F00606D5206845
:1009F0000069800702D0204600F088F9B00308D5CE
:100A000019F0100005D0206810214160204600F048
:100A10007FF9F00308D519F0080005D020680821F7
:100A20004160204600F082F9300440F19B805FEA8B
:100A3000497040F1948006F4807008EA1020284341
:100A40005FEA8871014648BF41F00201B20558BF14
:100A500001465FEA48700D4648BF45F00405700541
:100A600058BF0D46300540F17A8018F0700000F054
:100A700076801038000905286CD8DFE800F003659F
:100A80005D61596945F0080564E000BF20684FF4D6
:100A90008071BA0581600BD4780515D438051DD452
:100AA000204600F03BF9F8037FF56CAF1BE000BF78
:100AB000204600F035F9F8037FF564AF13E000BF7E
:100AC0004FF4006558E700BF05F50055F8037FF5C2
:100AD00059AF08E04FF480554EE700BF05F580455B
:100AE000F8037FF54FAF20684FF48031BA0381607F
:100AF0000AD4780310D4380314D4204600F012F935
:100B000030073FF541AF47E7204600F00DF93007C9
:100B10003FF53AAF40E700BF05F5004530073FF528
:100B200033AF39E705F5803530073FF52DAF33E7B3
:100B300045F080050EE000BF45F020050AE000BF4B
:100B400045F0400506E000BF45F0100502E000BF9B
:100B500045F480752068816921F070018161206809
:100B60000421416055B1606A40EA05012046616296
:100B700001B0BDE8F04FFFF7D3BE00BF01B0BDE844
:100B8000F08F0000002804BF01207047B0B5044674
:100B900090F8200010B9204600F06EF82068016837
:100BA00041F00101016000F087FB054620684168C3
:100BB000C90705D100F080FB401B0B28F6D310E0DD
:100BC000016821F00201016000F076FB054600BFDC
:100BD0002068416889070DD500F06EFB401B0B288B
:100BE000F6D3606A052140F400306062012084F889
:100BF0002010B0BD217E0268012922F0800208BFCA
:100C000080320260617E0268012922F0400208BF42
:100C100040320260A17E0268012922F0200208BF52
:100C200020320260E17E0268012922F0100218BF22
:100C300010320260217F0268012922F0080208BFF9
:100C400008320260617F0268012922F0040208BFB5
:100C500004320260D4E901C2D4E9033561691A4360
:100C60002A431143ACF101021143C161002001216B
:100C7000606284F82010B0BD80B586B046F20041B5
:100C80000068C4F20001002288420592CDE90322E7
:100C90000292019202D006B080BD00BF43F6300040
:100CA0000092C4F20200036943F000730361036918
:100CB00003F000730093009B0092036843F002036B
:100CC0000360006800F00200009000984FF440704C
:100CD00001900220CDE90202032004900920059032
:100CE00001F5D03001A900F011FA142002210022F0
:100CF00000F050FC142000F03BFC06B080BD00006A
:100D00007047000070470000704700007047000007
:100D100070470000704700007047000070470000F7
:100D200070470000704700007047000070470000E7
:100D300070B5866D044600F0BFFA94F835100229AC
:100D400028D105462068216C026822F01602026054
:100D5000426922F08002426109B9A16C19B10168AF
:100D600021F008010160016821F00101016000BF6C
:100D700020680068C00715D000F09EFA401B0628C6
:100D8000F6D320206065032084F83500002184F824
:100D9000341070BD802060650120002184F834107B
:100DA00070BD00BFE06D3F2101FA00F0B06001208E
:100DB00084F835000020002184F8341070BD000054
:100DC00090F83510022909D1052180F83510006806
:100DD000016821F001010160002070478021416518
:100DE00001207047F0B581B00021009140F2080168
:100DF000C2F200010B68D0E9166148F2B5153768F8
:100E00000822C1F64E358A403A42A3FB05350CD084
:100E100003681C68640708D51C6824F004041C607F
:100E2000B260426D42F00102426501228A403A42BC
:100E300008D003685B691B0604D5B260426D42F0BE
:100E40000202426504228A403A4208D003681B68C5
:100E50009B0704D5B260426D42F004024265102245
:100E60008A403A4219D001680B681B0715D5B26059
:100E70000B680A685B0309D4D20509D40A6822F01A
:100E800008020A60016C29B907E000BF110341D4D0
:100E9000016C11B1044688472046C26D202101FA39
:100EA00002F33B4243D001680F68FF063FD5B360B1
:100EB00090F835700B68052F1CD123F016030B60DA
:100EC0004B6923F080034B61036C0BB9836C1BB13E
:100ED0000B6823F008030B603F219140B1600121B2
:100EE00080F83510016D0022002980F8342054D19B
:100EF00058E000BF0A685B0310D4D20512D40A6818
:100F000022F010020A60012180F83510002180F8DB
:100F1000341007E0816C0029BCD1BEE7110301D475
:100F2000416C00E0C16B11B1044688472046416D19
:100F3000C1B3416DC9072ED0052180F83510016875
:100F4000AA0A0B6823F001030B60009B0133934254
:100F500000931AD80B68DB0717D0009B013393422C
:100F6000009312D80B68DB070FD0009B013393422C
:100F700000930AD80B68DB0707D0009B013393422C
:100F8000009302D80B68DB07DFD1012180F8351010
:100F9000002180F83410C16C21B101B0BDE8F040EF
:100FA000084700BF01B0F0BD2DE9F041044600F054
:100FB00083F9ECB10546022084F835000020216851
:100FC00084F83400086820F001000860216808688F
:100FD000C00711D000F070F9401B0528F6D9032591
:100FE00020230320636584F83550BDE8F08100BFFD
:100FF0000120BDE8F08100BF086848F23F02CFF24F
:101000001002D4E9013500EA020C04F10C0898E85A
:10101000C10143EA0C032B431843D4E9072E3043A4
:1010200038431043626A40EA0E00042A40EA08038B
:101030001CD1206BD4E90A2E40EA0E001843086048
:101040004869BEF1000F20F0030040EA020040F0C2
:10105000040C11D0B8F5005F36D0B8F1000F45D1BF
:10106000022A46D0012A3BD032B942E00B604869DF
:1010700020F0070040EA020C01F0F8004AF6AB222B
:101080001038CAF6AA22A0FB02231A0943F22C73D5
:10109000C1F814C0C0F600039A5C40F2FF335F2829
:1010A0004FF03F0021EA030100FA02F088BF04314B
:1010B000C4E916128860002301250020636584F8C6
:1010C0003550BDE8F08100BF032AD5D80125402363
:1010D0000120DFE802F0030E030500BF82E700BF36
:1010E000AEF1C070B0FA80F0400904E0032A04D3E6
:1010F000C2D1CEF300600028BED0012540230120DC
:10110000636584F83550BDE8F08100002DE9F04FAB
:1011100083B000F1200200F13E4741F60045009205
:1011200007F1FF77C4F2020508224FEAB726A8426A
:1011300008BF072200254FF000084FF00009072ED6
:1011400038BF4FEAB72201920AE000BF09F1010956
:1011500008F10208B9F1100F05F1040500F0A280B2
:101160000F68012202FA09FE17EA0E0AEED0D1F842
:1011700004C003220CF003077E1E02FA08F4012EBD
:101180006FEA040B12D88468CE6804EA0B0406FAEE
:1011900008F634438460446824EA0E06CCF3001455
:1011A00004FA09F42643466004E000BF032F01D18E
:1011B00003271EE0C6688C6806EA0B0604FA08F4EA
:1011C0002643022FC66014D16FF00302009E02EA8C
:1011D000590756F807C005F01C040F220B69A240FE
:1011E0002CEA0202A3401A43F251D1F804C00CF0D9
:1011F0000307026807FA08F302EA0B021A431CF419
:10120000403F0260A2D0002243F644030292C4F29F
:1012100002031A6843F6004442F480421A601A68D6
:10122000C4F2010402F480420292029A29F00302FD
:101230004FF6084C2244CFF6FF7C52F80C3005F0F4
:101240000C070F26BE40B343019E06FA07F73B4347
:1012500042F80C30A2684B6842EA0A0743F60C4C8D
:10126000DE0258BF22EA0A07A760C4F2010CDCF8CC
:1012700000209E0242EA0A0758BF22EA0A07CCF879
:10128000007062689E0342EA0A0758BF22EA0A0712
:1012900067602268DB0342EA0A0758BF22EA0A07AE
:1012A000276053E703B0BDE8F08F0000002A08BFB5
:1012B000090481617047000040F20C30C2F2000066
:1012C00000687047002804BF01207047F0B581B066
:1012D000044690F83D0028B9002084F83C002046E0
:1012E00000F0A2F8242084F83D002068016821F075
:1012F00001010160016841F400410160016821F4CD
:101300000041016000F034FA636848F2A16CC0F259
:10131000010C40F60011C0F23D0163453CBF48F2AC
:101320008041C0F21E01884202D2012001B0F0BD0E
:101330004DF68361C4F21B31A0FB01122168970CAA
:10134000D1F804E04FF496762EF03F0545EA924539
:101350004D60774348F638160D6AC0F24106A7FB88
:10136000067625F03F07634538BF960C721C3A435A
:101370000A62CA6948F2A0664CF6FF77C0F201061D
:10138000B34222EA07020BD801385B00B0FBF3F04E
:1013900001306FF31F30042898BF04201BE000BF0A
:1013A000A768013857B119277B43B0FBF3F0013030
:1013B0006FF31F3070B100F5804007E003EB43038B
:1013C000B0FBF3F001306FF31F3018B100F50040AF
:1013D00001E000BF01201043C8610868D4E9072379
:1013E00020F0C000104318430860886848F2FF32BC
:1013F00004F10C0790438CCF18431043A669886012
:10140000C86820F0FF0038433043C860086840F0E7
:101410000100086000202021206484F83D10206332
:1014200084F83E0001B0F0BDB0B586B045F2004191
:101430000068C4F20001002488420594CDE9034409
:101440000294019402D006B0B0BD00BF43F630054F
:101450000094C4F20205286840F002002860286861
:1014600000F0020000900098C02001901220CDE909
:101470000204032004900420059001F5D83001A94E
:10148000FFF744FE0094286940F4001028612869A1
:1014900000F400100090009806B0B0BD40F20000CB
:1014A00040F20C31C2F20000C2F2000100780A687A
:1014B000104408607047000080B543F60040C4F255
:1014C0000200016841F400710160016841F480612B
:1014D0000160016841F480710160032000F086F82A
:1014E0000F2000F005F800F027F8002080BD000074
:1014F00070B540F20006C2F2000640F208013278F0
:10150000C2F200014FF47A730968B3FBF2F20446A9
:10151000B1FBF2F1084600F0F3FB0F2C4FF0010590
:1015200008D838B94FF0FF3021460022002500F0DE
:1015300031F87460284670BD82B0002043F6400147
:101540000190C4F202014A6842F480424A604A684B
:1015500002F480420192019A0090086840F08050A5
:101560000860086800F080500090009802B0704752
:10157000002848BF704700F01F01012202FA01F164
:101580001C2202EAD0004EF20012CEF2000281507C
:101590007047000010B54EF60C5CCEF2000CDCF883
:1015A0000030C3F3022E8EF00704042C28BF04245D
:1015B000BEF103034FF0FF3E0EFA04F438BF0023E0
:1015C000A14399400EFA03F39A43114300F00F022E
:1015D00000F160430901043A03F5644362440028C2
:1015E00048BF02F10C03197010BD00004EF60C51FB
:1015F000CEF200010A684FF6FF031A4060F30A2298
:1016000042F0806040F0FD7008607047002804BF21
:10161000012070472DE9F04143F60808C4F20208A2
:101620000446D8F8F8030D4600F00700814207D9B8
:1016300088F8F853D8F8F80300F00700A84277D1EB
:101640002068810717D5410705D5D8F8001041F467
:10165000E051C8F80010010705D5D8F8001041F492
:101660006041C8F80010D8F80010A26821F0F0011D
:101670001143C8F80010C00740D1D8F8F80300F0B3
:101680000700854207D288F8F853D8F8F80300F02D
:101690000700A8424CD12068410707D5D8F80010B0
:1016A000E26821F4E0511143C8F80010000708D5A2
:1016B000D8F80000216920F4604040EAC100C8F871
:1016C000000000F07DF8D8F8001043F21472C1F366
:1016D0000311C0F60002515C40F2080220FA01F149
:1016E00040F20400C2F200000068C2F20002116081
:1016F000FFF7FEFE0020BDE8F08100BF6068811E9C
:10170000022907D258F8081C89015CBF0120BDE8F6
:10171000F08111E0012807D158F8081C89035CBF4B
:101720000120BDE8F08107E058F8081C890703D4C0
:101730000120BDE8F08100BFD8F8001021F00301BE
:101740000843C8F80000FFF7B7FD064641F28837A6
:10175000D8F80000616800F00C00B0EB810F8CD06D
:10176000FFF7AAFD801BB842F2D90320BDE8F08143
:1017700040F2080043F60801C2F20000C4F2020180
:101780000068096843F22472C1F38221C0F60002A6
:10179000515CC8407047000040F2080043F6080161
:1017A000C2F20000C4F202010068096843F2247228
:1017B000C1F34231C0F60002515CC84070470000DE
:1017C00010B543F60404C4F202046168C1F3810158
:1017D00042F20040C0F2F400DFE801F002040A0225
:1017E00010BD00BF41F20020C0F27A0010BD00BF62
:1017F000216801F03F02216823684902C3F3881180
:1018000006D4A1FB00010023FEF744FD07E000BF62
:1018100041F20020C0F27A004843B0FBF2F02168A8
:101820000222C1F3014102EB4101B0FBF1F010BD16
:10183000002804BF012070472DE9F04182B0044622
:10184000007843F60006C007C4F202060CD0B06868
:1018500000F00C00042840F081803068800303D53C
:101860006068002800F06881207880071BD5B06888
:1018700010F00C0F09D0B06800F00C00082840F000
:1018800087807068400200F183803068800703D54C
:10189000E068012840F050813068216920F0F800AC
:1018A00040EAC10030602078000713D42078400758
:1018B0002AD4A569002D00F03A81B06800F00C0030
:1018C000082840F0A580012D40F00E81012002B0D3
:1018D000BDE8F0816069002800F082800020C4F239
:1018E00047200121C0F8801EFFF7E6FC054600BF37
:1018F000706F8007DAD4FFF7DFFC401B0228F7D9AE
:10190000032002B0BDE8F081306C5FEAC0080AD461
:1019100000200190306C40F080503064306C00F05A
:1019200080500190019847F20007C4F20007386820
:10193000C00547D4386840F480703860FFF7BCFCBD
:10194000054600BF3868C0053CD4FFF7B5FC401B16
:101950000228F7D9032002B0BDE8F081B06800F09A
:101960000C00082803D1706840023FF576AF61682B
:101970003068B1F5803F07D0B1F5A02F40F09A80D4
:1019800040F480203060306840F4803030609AE06D
:10199000E068002840F20000C4F247205CD001213A
:1019A0000160FFF789FC0546306880073FF574AF9A
:1019B000FFF782FC401B0228F6D9032002B0BDE8E5
:1019C000F08100BFA168306F012905D0052955D1EC
:1019D00040F004003067306F40F00100306756E09F
:1019E0000020C4F247200021C0F8801EFFF764FCED
:1019F000054600BF706F80077FF558AFFFF75CFCAE
:101A0000401B0228F6D9032002B0BDE8F08100BFD8
:101A10000027C4F2472700203866FFF74DFC022D4F
:101A200005460DD13068800140F18A80FFF744FC03
:101A3000401B02284FF00300F4D902B0BDE8F0814A
:101A40003068800173D5FFF737FC401B02284FF048
:101A50000300F5D9F1E700BF00210160FFF72CFC7E
:101A6000054600BF306880077FF51DAFFFF724FCF7
:101A7000401B02284FF00300F4D9DEE720F00100FC
:101A80003067306F002920F0040030677AD0FFF70C
:101A900013FC054641F28837306F800700F18480DF
:101AA000FFF70AFC401BB842F6D9032002B0BDE89C
:101AB000F08100BF20F4803030603068002920F4CD
:101AC000802030607AD0FFF7F7FB0546306880034E
:101AD0003FF5CAAEFFF7F0FB401B6428F6D90320A0
:101AE00002B0BDE8F08100BF7068E16900F48002D7
:101AF0008A4221D1216A00F03F028A421CD147F676
:101B0000C071626A0140B1EB821F15D1A16A4FF624
:101B1000FF73C903994300F44032A1F580318A4232
:101B20000AD1E16A00F07060B0EB016F04D10020CF
:101B300002B0BDE8F08100BF012002B0BDE8F08135
:101B400004F11C052FCD084340EA8210D9034FF65B
:101B5000FF729143A1F5803140EA0560084370604F
:101B600001203866FFF7A8FB044600BF30688001FB
:101B7000DDD4FFF7A1FB001B02284FF00300F5D9CD
:101B80005BE700BFFFF798FB054641F2883700BFCF
:101B9000306F800708D5FFF78FFB401BB8424FF02E
:101BA0000300F5D949E700BFB8F1000F3FF581AE5A
:101BB000306C20F0805030647BE600BFFFF77CFB88
:101BC000054600BF306880037FF54EAEFFF774FB1B
:101BD000401B64284FF00300F4D92EE770B528B1FC
:101BE000416A29B100210161142106E0012070BD84
:101BF0004168B1F5827F02D01C21002242500026AC
:101C0000866290F8511029B980F85060054600F0BE
:101C10003DF82846022180F8511090E82E0002F489
:101C200082720C6803F4044324F040040C601A44EC
:101C300005F4006305691A4405F0020345691A4476
:101C400005F001038569C4691A4405F400731A4458
:101C500004F03803046A1A4404F08003846A1A43C7
:101C600004F400531A430A60436A042202EA15424C
:101C700003F010031A444A60CA6922F40062CA6180
:101C80000121466580F85110304670BD80B586B0A0
:101C900043F200010068C4F201010022884205926B
:101CA000CDE903220292019202D006B080BD00BFAE
:101CB00043F630000092C4F20200436943F48053BB
:101CC0004361436903F480530093009B00920368CF
:101CD00043F001030360006800F0010000900098E9
:101CE000E02001900220CDE90202032004900520AB
:101CF000059001F5504001A9FFF708FA06B080BD34
:101D0000411E0020B0EB116F1CBF012070474EF246
:101D10001002CEF2000251604EF62351CEF20001C5
:101D2000F0230B700721906011607047704700002E
:101D30007047000090F83C20012A04BF0220704741
:101D4000B0B501F108053CCDD1E900CE23F47C53B8
:101D500022F470521A432EF4F0431A432CF4E04359
:101D60001A4324F4C0431A432A43C96922F4804227
:101D7000036811435964002180F83C100020B0BD75
:101D800070B588B000285BD0044690F83D000D4641
:101D900028B9002084F83C00204600F055F80220C5
:101DA00084F83D002068211D01F062FA206829684E
:101DB000AB68032201F02EFB20680026816921F028
:101DC0000C0181616968826911438161416841F058
:101DD00080014160816821F070018160816841F07B
:101DE00040018160816821F007018160816841F0D4
:101DF0000401816070210191E968CDE90566CDE9B2
:101E0000021601A90796049601F0D0FA20684168ED
:101E100021F070014160416841F0500141600120B2
:101E200084F8460084F83E0084F83F0084F84200BD
:101E300084F8430084F83D00304608B070BD00BF10
:101E40000126304608B070BD80B586B0006800211C
:101E5000B0F1804F0591CDE903110291019101D0BC
:101E600006B080BD43F630000091C4F20200026962
:101E700042F001020261026902F001020092009A3E
:101E80000091026842F001020260006800F0010067
:101E900000900098072001900220CDE90201012066
:101EA000059000200491C4F2020001A9FFF72EF969
:101EB0001C2001210022FFF76DFB1C20FFF758FBBF
:101EC00006B080BD90F83C20012A4FF0020254D0A9
:101ED00010B580F83D200268D2F804E0D2F808C0BE
:101EE0000C682EF07003234341F2FF74C4F2000427
:101EF000A24253600EDC40F2FF73C4F200039A4228
:101F000016DCB2F1804F2BD040F20043C4F2000344
:101F100024E000BF40F2FF33C4F201039A4213DC15
:101F200041F60003C4F200039A4219D0002313E0E3
:101F300040F60003C4F200039A4211D040F6004379
:101F4000C4F200030AE000BF44F20003C4F201033C
:101F50009A4205D040F20043C4F201039A4204D1F0
:101F600049682CF08003194391600121002280F818
:101F70003D1080F83C20BDE810401046704700003E
:101F8000002804BF0120704710B5044690F83D00BA
:101F900028B9002084F83C00204600F01FF80220F9
:101FA00084F83D002068211D01F062F9012084F8C9
:101FB000460084F83E0084F83F0084F8400084F82E
:101FC000410084F8420084F8430084F8440084F817
:101FD000450084F83D00002010BD000010B582B01F
:101FE000006841F20001C4F20001884218D00021CB
:101FF000C4F2010188422FD10020019043F6400035
:10200000C4F202004168002241F0010141604068D1
:10201000002100F00100019001981920192412E01C
:102020000020009043F64000C4F202000168002244
:1020300041F0100101600068032100F010000090E1
:10204000009836203624FFF7A5FA204602B0BDE8F6
:102050001040FFF78DBA00BF02B010BD90F83C20D1
:10206000012A4FF002026CD080B580F83D20D0F8F4
:1020700000C04FF67772DCF8083023EA0202CCF891
:1020800008200B684F2B29DC1F2B45DD202B46D069
:10209000302B44D0402B40F0AF80D1F804E0C96829
:1020A000DCF82030DCF8202022F00102CCF82020DF
:1020B000DCF8182022F0F00242EA011123F00A02B3
:1020C00042EA0E02CCF81810CCF82020DCF80810F8
:1020D00041F0470121F0300128E000BF6F2B33DDD4
:1020E000B3F5005F74D0B3F5805F21D0702B40F062
:1020F0008380D1E901E3C968DCF8082043EA0E03D4
:1021000022F47F4243EA01211143CCF80810DCF8A5
:10211000081041F0770109E00BB1102B6CD1DCF80D
:10212000081021F07001194341F00701CCF80810A4
:102130000022012180F83D10002180F83C10BDE80C
:1021400080401046704700BF502B21D0602B53D1E8
:10215000D1F804E0C968DCF82030DCF8202022F057
:102160001002CCF82020DCF8182022F4704242EA59
:10217000013123F0A00242EA0E12CCF81810CCF87C
:102180002020DCF8081041F0670121F01001CDE7B4
:10219000D1F804E0C968DCF82030DCF8202022F017
:1021A0000102CCF82020DCF8182022F0F00242EAEC
:1021B000011123F00A0242EA0E02CCF81810CCF802
:1021C0002020DCF8081041F0570121F02001ADE794
:1021D000D1E901E3C968DCF8082043EA0E0322F4E0
:1021E0007F4243EA01211143CCF80810DCF80810C3
:1021F00041F480419AE700BF01229AE7704700004E
:1022000070B504460068C5680669B10716D515F0B3
:10221000020113D06FF00201016101212177806971
:10222000800703D02046FFF7E9FF05E0204600F0D5
:102230008FF8204600F0CEF900202077700719D5DE
:1022400015F0040016D020686FF00401016102212E
:102250002177806910F4407F04D02046FFF7CEFF3D
:1022600006E000BF204600F073F8204600F0B2F907
:1022700000202077300717D515F0080014D020680B
:102280006FF00801016104212177C069800703D044
:102290002046FFF7B3FF05E0204600F059F820463E
:1022A00000F098F900202077F00619D515F01000FD
:1022B00016D020686FF01001016108212177C069F4
:1022C00010F4407F04D02046FFF798FF06E000BFDF
:1022D000204600F03DF8204600F07CF900202077F1
:1022E000F00718BF15F0010002D1300609D412E042
:1022F00020686FF001010161204600F06DF93006A1
:1023000009D515F0800006D020686FF080010161CA
:102310002046FFF70BFD700609D515F0400006D0EA
:1023200020686FF040010161204600F057F9B006C7
:1023300058BF70BD15F0200008D021686FF0200252
:1023400020460A61BDE87040FFF7F2BC70BD000096
:102350007047000090F83C30012B04BF022070470A
:102360004FEAB202032A00F2FF802DE9F043DFE8D2
:1023700002F003B13F7F00BF036840F200461C6AD1
:102380001A6A24F0020422F001021A621A46D3F8F3
:1023900004C052F818EF8F6843F48065C4F2010658
:1023A000B54244EA070405D1CF6824F00C0427F0B5
:1023B00004073C430F68B54206D1D1E905582CF417
:1023C00040762E4346EA080C2EF073063743C3F8D6
:1023D00004C09F614F6809695F631C629F6947F091
:1023E00008079F619F6927F004079F61B1E000BF64
:1023F000036840F200481C6A1A6A24F4007422F44C
:1024000080721A621A46D3F804C052F81CEF8F6823
:1024100043F48065C4F20108454544EA072408D125
:10242000CF6840F2FF463F0224F4406427EA0606E4
:102430003443D1F80090454506D1D1E905562CF436
:1024400040572E4347EA061C2EF0730747EA090758
:10245000C3F804C0DF614F680969DF631C62DF698C
:1024600047F00807DF61DF6927F00407DF6170E0EC
:10247000036840F20045D3F820C01A6A43F480672D
:1024800022F480521A621A465C6852F81C8FD1F806
:1024900000E08E68C4F20105AF4204D14D6924F416
:1024A000804444EA85142CF4005747EA063728F4A0
:1024B000E64646EA0E265C60DE614E6809691E64E7
:1024C0001F62DF6947F40067DF61DF6927F4806717
:1024D000DF613DE0036840F200481C6A1A6A24F09C
:1024E000200422F010021A621A46D3F804C052F8EF
:1024F00018EF8F6843F48065C4F20108454544EA4B
:10250000071407D1CF686FF0400624F0C00406EA34
:1025100007163443D1F80090454506D1D1E9055658
:102520002CF440672E4347EA860C2EF4E64747EA30
:102530000927C3F804C09F614F6809699F631C6243
:102540009F6947F400679F619F6927F480679F61D7
:1025500009021368194311600021BDE8F04300220D
:1025600080F83C20084670470121002280F83C207A
:1025700008467047002804BF0120704710B5044684
:1025800090F83D0028B9002084F83C00204600F077
:102590001FF8022084F83D002068211D00F068FE2D
:1025A000012084F8460084F83E0084F83F0084F857
:1025B000400084F8410084F8420084F8430084F825
:1025C000440084F8450084F83D00002010BD000060
:1025D000704700007047000070470000704700001F
:1025E0007047000070470000B0B582B001680A680B
:1025F000CC684B6902F02F05202D04F0200505D191
:1026000025B102B0BDE8B04000F062BF5FEA027CD5
:102610001EBF03F0010E04F4907313EB0E0341D1BF
:10262000036BD50618D5012B16D114F0100313D067
:10263000002201920A6801924A680192019A49694E
:1026400049064BD4818DC28DC38D002B18BF91429A
:1026500040F0068202B0B0BD13062DD514F0800301
:102660002AD090F84120212AF4D18268B2F5805F07
:1026700003D10269002A00F07982026A531C0362C6
:1026800012784A60C28C013A1304C284E2D1C8684D
:1026900020F08000C860C86840F04000C86002B008
:1026A000B0BD00BFD30718BF14F4807340F0E280C0
:1026B000530700F1E580EAE05206CBD514F0400262
:1026C000C8D0CA6822F04002CA60202180F84110B8
:1026D00002B0BDE8B04000F0C5BA00BFC26B1168DF
:1026E0004B68858D99B2002900F0B480A94280F032
:1026F000B180C385D169B1F5807F00F0A080016809
:1027000051E8031F026821F4807142E80313DBB132
:10271000016851E8031F026821F4807142E8031345
:1027200093B1016851E8031F026821F4807142E807
:1027300003134BB1016851E8031F026821F4807153
:1027400042E80313002BDAD1016851E8051F026843
:1027500021F0010142E80513BBB3016851E8051FF0
:10276000026821F0010142E8051373B3016851E8E2
:10277000051F026821F0010142E805132BB301682F
:1027800051E8051F026821F0010142E80513002B02
:10279000DAD11AE0016851E8051F026821F0400112
:1027A00042E80513DBB1016851E8051F026821F01A
:1027B000400142E8051393B1016851E8051F026822
:1027C00021F0400142E805134BB1016851E8051FB3
:1027D000026821F0400142E80513002BDAD12021E4
:1027E00080F8421000210163016851E8031F02686C
:1027F00021F0100142E80313DBB1016851E8031F27
:10280000026821F0100142E8031393B1016851E816
:10281000031F026821F0100142E803134BB1016865
:1028200051E8031F026821F0100142E80313002B56
:10283000DAD1C16B04460846FEF77AFA2046022137
:102840004163818DC28D891A89B202B0BDE8B04062
:10285000FFF7C6BE8D427FF4FDAED269B2F5807F30
:102860007FF4F8AE0222426302B0BDE8B040FFF749
:10287000B7BE00BF436C43F001034364530706D562
:10288000BEF1000F03D0436C43F00203436493078F
:1028900006D5BEF1000F03D0436C43F0040343643C
:1028A000BCF1000F06D55EEA050303D0436C43F08C
:1028B00008034364436C002B3FF4CCAE920605D56D
:1028C00025B1044600F004FE216820464969426CA7
:1028D00001F0400102F00802891800F0B98000BF41
:1028E000016851E8031F026821F4907142E8031364
:1028F000BBB3016851E8031F026821F4907142E8FC
:10290000031373B3016851E8031F026821F4907147
:1029100042E803132BB3016851E8031F026821F456
:10292000907142E80313002BDAD11AE0016851E8F4
:10293000051F026821F0010142E80513DBB10168BF
:1029400051E8051F026821F0010142E8051393B127
:10295000016851E8051F026821F0010142E80513F2
:102960004BB1016851E8051F026821F0010142E8FE
:102970000513002BDAD1016B012924D1016851E83C
:10298000031F026821F0100142E80313DBB1016864
:1029900051E8031F026821F0100142E8031393B1CC
:1029A000016851E8031F026821F0100142E8031397
:1029B0004BB1016851E8031F026821F0100142E8A1
:1029C0000313002BDAD1202180F84210002101638B
:1029D00001684969490640F1C380016851E8051F53
:1029E000026821F0400142E80513DBB1016851E8BB
:1029F000051F026821F0400142E8051393B1016808
:102A000051E8051F026821F0400142E805134BB16F
:102A1000016851E8051F026821F0400142E80513F2
:102A2000002BDAD1C16B002900F09A8043F2C54235
:102A3000C0F60002044608460A65FEF7C1F9002800
:102A40003FF408AEE06B016D02B0BDE8B04008474E
:102A50000446FFF7C7FD0020606402B0B0BD00BFB0
:102A6000891A00BF026852E8032F036822F49072AB
:102A700043E80325BDB3026852E8032F036822F43C
:102A8000907243E8032575B3026852E8032F036888
:102A900022F4907243E803252DB3026852E8032F15
:102AA000036822F4907243E80325002DDAD11AE07E
:102AB000026852E8052F036822F0010243E8052569
:102AC000DDB1026852E8052F036822F0010243E8F5
:102AD000052595B1026852E8052F036822F001022E
:102AE00043E805254DB1026852E8052F036822F03E
:102AF000010243E80525002DDAD1202280F842208A
:102B000000220263026852E8032F036822F01002D9
:102B100043E80325DDB1026852E8032F036822F081
:102B2000100243E8032595B1026852E8032F0368B9
:102B300022F0100243E803254DB1026852E8032F4A
:102B4000036822F0100243E80325002DDAD10222A7
:102B500089B2426302B0BDE8B040FFF741BD00BF9B
:102B600002B0BDE8B040FFF73DBD00BF026A32F8D9
:102B7000023B6FF35F234B60026283E5002804BFD2
:102B80000120704710B5044690F8410028B9002094
:102B900084F84000204600F021F8242084F8410009
:102BA0002068C16821F40051C160204600F010FD8A
:102BB0002068016921F490410161416921F02A01F5
:102BC0004161C16841F40051C1600020202160646E
:102BD00084F8411084F84210606310BD80B586B05F
:102BE00044F200410068C4F20001002288420592CC
:102BF000CDE903220292019202D006B080BD00BF4F
:102C000043F630000092C4F20200036943F400333B
:102C10000361036903F400330093009B009203688F
:102C200043F008030360006800F00800009000987B
:102C3000602001900220CDE90202032004900720C9
:102C4000059001F5E43001A9FEF760FA2620022183
:102C50000022FEF79FFC2620FEF78AFC06B080BD0E
:102C60007047000070470000FEE70000B0B584B078
:102C700040F2700042F2000101230024C2F2000081
:102C8000C4F201010125C0F6007303944FF48032B1
:102C9000047680F82040C0E90A34C56180F83050DD
:102CA00080E81600C0E903454461FDF729FD0028CE
:102CB00018BFFDF7E1FB0A20CDE9000540F27000E6
:102CC000C2F2000069460294FDF7DCFB002818BF41
:102CD000FDF7D2FB04B0B0BD80B540F2B80046F2BB
:102CE0000041C2F20000C4F200010622002380E885
:102CF0000E0000F10C014FF4102C4FF4001E81E87F
:102D0000085083618383FDF73DFF002808BF80BD25
:102D1000BDE88040FDF7B0BB80B582B000200190D7
:102D200043F63000C4F202000168002241F4800141
:102D300001600068002100F48000019001983820B3
:102D4000FEF728FC382002B0BDE88040FEF710BC3A
:102D50002DE9F04387B0002743F630000697CDE910
:102D60000477CDE902770197C4F20200016841F2CD
:102D7000000941F0800101600168C4F2020901F01C
:102D800080010191019901970168A9F5805541F0F1
:102D9000040101600168002201F004010191019920
:102DA00001970168102641F001010160016801F0FE
:102DB0000101019101990197016841F01001016041
:102DC000016801F01001019101990197016841F03A
:102DD00002010160016801F002010191019901976E
:102DE000016841F0080101600068102100F008004E
:102DF000019001982846FEF759FA48464FF4C06101
:102E000000224FF4C068FEF751FA029602AE012488
:102E100028463146CDE903470597FEF777F948463E
:102E20003146CDE90284CDE90477FEF76FF94FF41E
:102E30000060CDE90207484631460497FEF766F97F
:102E400007B0BDE8F083000080B540F2401045F2C5
:102E50000041C2F20000C4F2000148F2A062002367
:102E60004FF4804CC0F2010280E80E00C0E9033C40
:102E7000C0E90533C0E90733FEF724FA002808BF8C
:102E800080BDBDE88040FDF7F7BA000010B540F204
:102E9000941043F20001C2F20000C4F201014FF4A9
:102EA000827200234FF4006C4FF4007E182480E8F7
:102EB0000E100A21C0E90433C0E906E4C0E9083372
:102EC000C0E90A31FEF78AFE002808BF10BDBDE840
:102ED0001040FDF7D1BA00002DE9F0419CB040F25E
:102EE000000840F2EC10C4F201080021C2F2000018
:102EF00041F2680280231591CDE913111191CDE9BA
:102F00000F11CDE90D11CDE90B11CDE90911CDE975
:102F10000711CDE90511CDE90311CDE90111C0E992
:102F20000081C0E90212C0E904118361FFF728F8AB
:102F3000002818BFFDF7A0FA4FF48050129040F21D
:102F4000EC10C2F2000012A9FFF788F8002818BFA1
:102F5000FDF792FA40F2EC10C2F20000FFF70AFB14
:102F6000002818BFFDF788FA40F2EC100024C2F2E6
:102F7000000010A9CDE91044FEF7A4FF002818BFF7
:102F8000FDF77AFA6020CDE9090440F2EC10C2F2B4
:102F9000000009A90022CDE90B44CDE90D440F94AE
:102FA000FFF7D8F9002818BFFDF766FA40F2EC10D9
:102FB000C2F2000009A90422FFF7CCF9002818BFCB
:102FC000FDF75AFA40F2EC10C2F2000009A90822FB
:102FD000FFF7C0F9002818BFFDF74EFA40F2EC14D5
:102FE0004FF40050C2F200040026069001A92046CA
:102FF0000596CDE90366CDE901660896FEF79AFECF
:10300000002818BFFDF738FA20681B964045CDE927
:1030100019661896179603D01CB0BDE8F08100BF62
:10302000002643F630001696C4F20200016817AC81
:1030300041F0020101600168022701F002011691CE
:10304000169916960168012541F00101016000689A
:10305000214600F00100169016984FF4604017903A
:1030600008F58230CDE918761A961B95FEF74EF8D2
:103070004FF4E060CDE9170708F580302146CDE92F
:1030800019661B95FEF742F81CB0BDE8F081000000
:1030900080B586B05020009040F234200021C2F26A
:1030A00000004FF080424FF0FF330191C0E9002152
:1030B000C0E9021301618161CDE90211CDE904117A
:1030C00002A9FEF75DFE002818BFFDF7D5F940F212
:1030D0003420C2F200006946FEF7F4FE002818BF53
:1030E000FDF7CAF906B080BD80B582B040F27C2001
:1030F0000021C2F2000041F200024FF00A0CCDE9BB
:103100000011C4F2000242F2D003C0E9021C802187
:10311000C0E900238161FEF733FF002818BFFDF7E7
:10312000ABF940F27C20C2F200006946FEF7CAFE0D
:10313000002818BFFDF7A0F902B080BD80B540F2AD
:10314000C42044F20041C2F20000C4F20001002396
:103150004FF00C0C4FF4E13280E80E00C0E903336D
:10316000C0E905C3C361FFF709FD002808BF80BDA2
:10317000BDE88040FDF780B9FEE70000FEE70000F3
:103180007047000070470000FEF788B970B592B034
:1031900006AC20463021FDF7F5F8002543F6400047
:1031A0000595CDE90355CDE901550095C4F202001E
:1031B0000168022641F080510160006800F08050F3
:1031C0000090009847F200000095C4F200000168EA
:1031D00041F480410160006800F480400090009854
:1031E000012006904FF4803007904FF480000D903E
:1031F00008200E904FF4A870CDE90F06042011901E
:1032000020460C96FEF714FB10B172B6FEE700BF25
:103210000F20CDE901064FF4A05004904FF48050E8
:10322000059001A805210395FEF7F0F910B172B6DB
:10323000FEE700BF12B070BD4EF68850CEF200001F
:10324000016841F4700101607047000040F2EC1029
:10325000C2F20000FEF7D4BF40F23420C2F20000F8
:10326000FEF7CEBF40F27C20C2F20000FEF7C8BFDE
:10327000B0B540F6FF3E0568C4F2000E40F2004CC7
:103280007045C4F2010C25DCB0F1804F2FD040F224
:103290000043C4F20003984229D040F60003C4F270
:1032A0000003984223D041F6FF73C4F20003984212
:1032B00028DC70453ADCB0F1804F5BD040F200432F
:1032C000C4F20003984255D040F60003C4F2000354
:1032D0004EE000BF40F60043C4F20003984206D01F
:1032E000604504D00023C4F201039842DBD14B684F
:1032F00025F0700243EA020541F6FF73C4F20003B1
:103300009842D6DD43F6FF73C4F2010398421FDCF6
:1033100042F20003C4F2000398422BD00023C4F20F
:103320000103984226D0604524D028E040F60043AF
:10333000C4F2000398421DD041F60003C4F200031A
:10334000984217D041F60043C4F2000310E000BFDA
:1033500044F20003C4F2010398420BD044F6000388
:10336000C4F20103984205D044F20043C4F20103C1
:10337000984204D1CB6825F4407243EA02050A68FA
:103380008C684B69C46240F480648262644504BF07
:1033900009690163026825F0800142F004021943C3
:1033A0000260012242610160B0BD000070B5026A96
:1033B000036A40F2004423F010030362D0F804E0F3
:1033C000D0F818C08B6822F0200540F48062C4F267
:1033D0000104A24245EA031307D1CD686FF040060D
:1033E00023F0C00306EA05152B430D68A24206D15F
:1033F000D1E905242EF44066224346EA820E2CF4DD
:10340000E64242EA0522C0F804E08261496881632D
:10341000036270BD10B5D0F820C0D0F820E041F2B2
:10342000FF742EF0010EC0F820E0D0F818E0C4F2CE
:103430000004A0420EDC40F2FF74C4F20004A0427B
:1034400016DCB0F1804F2BD040F20044C4F20004EF
:1034500024E000BF40F2FF34C4F20104A04213DCB8
:1034600041F60004C4F20004A04219D0002413E085
:1034700040F60004C4F20004A04211D040F600441B
:10348000C4F200040AE000BF44F20004C4F20104E4
:10349000A04205D040F20044C4F20104A0420DD184
:1034A0002EF00304224363F307122CF00A0301F009
:1034B0000A0119448261016210BD00BF4EF0010291
:1034C000F1E70000806B0021C185FFF78BB8000099
:1034D00081B090F84210222921D183680246B3F5C9
:1034E000805F09D152F8281F52F8183C002B63D096
:1034F00003685B680AE000BF52F8281F13B903692C
:10350000002BF5D003685B6803F07F030B70116834
:1035100001311160C18D01390A04C18502D001B0A9
:10352000704700BF0168CA6822F02002CA60CA68FA
:1035300022F48072CA604A6922F001024A612021A5
:1035400080F8421000214163026B012A3CD10163E3
:10355000016851E8031F026821F0100142E80313DB
:10356000DBB1016851E8031F026821F0100142E855
:10357000031393B1016851E8031F026821F01001A1
:1035800042E803134BB1016851E8031F026821F0C0
:10359000100142E80313002BDAD101680A68D20651
:1035A00006D5002200920A680092496800910099AD
:1035B000818D01B0FFF714B8026852686FF35F2283
:1035C00021F8022B8162A5E701B0FFF749BB00009B
:1035D000B0B50446006804F108030ECB0569194331
:1035E00025F440552A4302616269E3691143C268C8
:1035F000194349F20C639A431143C1604169A269BE
:1036000021F4407141F20043114340F48062C4F25E
:1036100001039A42416103D1FEF7BEF802E000BF08
:10362000FEF7A6F8E1694FF69C7563681922C0F6AB
:10363000FF75B1F5004FA0FB02011FD15A00DB0F4F
:10364000FCF728FE48F21F51C5F2EB11A0FB012345
:103650005A0905F1805302FB0300322303EBC0003B
:10366000A0FB01014FF4F87000EA111000EB02100A
:10367000C1F34211084421688860B0BD9A009B0FD5
:10368000FCF708FE48F21F51C5F2EB11A0FB012325
:103690005A0902FB0500322303EB0010A0FB0101D5
:1036A000F02000EA511000EB0210C1F3431108446E
:1036B00021688860B0BD000040F2C420C2F2000062
:1036C000FEF792BFFEE70000FDF7F6FEFFF75EFD96
:1036D000FFF73EFBFFF720FBFFF7C8FAFFF7FCFA06
:1036E000FFF7B2FBFFF7D2FBFFF7F6FBFFF7D0FCCB
:1036F000FFF724FDFFF7F8FCFEE7F1EE100A4FF6A6
:10370000FF71C0F2C03120EA010040F04070E1EEEC
:10371000100A7047000000000000000001020304CE
:103720000607080900000000010203040006101645
:103730000006101658370008000000201000000096
:10374000EC010008683700081000002000090000A4
:103750000C02000800000000010000001000000042
:083760000024F4000000000049
:040000050800018965
:00000001FF
